{
  "_format": "hh-sol-artifact-1",
  "contractName": "DestinationBridge",
  "sourceName": "contracts/DestinationBridge.sol",
  "abi": [
    {
      "inputs": [],
      "stateMutability": "payable",
      "type": "constructor"
    },
    {
      "anonymous": false,
      "inputs": [
        {
          "indexed": false,
          "internalType": "uint256",
          "name": "tokenId",
          "type": "uint256"
        },
        {
          "indexed": false,
          "internalType": "address",
          "name": "owner",
          "type": "address"
        }
      ],
      "name": "Burn",
      "type": "event"
    },
    {
      "anonymous": false,
      "inputs": [
        {
          "indexed": false,
          "internalType": "address",
          "name": "from",
          "type": "address"
        },
        {
          "indexed": false,
          "internalType": "address",
          "name": "to",
          "type": "address"
        },
        {
          "indexed": false,
          "internalType": "uint256",
          "name": "tokenId",
          "type": "uint256"
        },
        {
          "indexed": false,
          "internalType": "uint256",
          "name": "date",
          "type": "uint256"
        },
        {
          "indexed": false,
          "internalType": "bytes32",
          "name": "nonce",
          "type": "bytes32"
        }
      ],
      "name": "Transfer",
      "type": "event"
    },
    {
      "inputs": [
        {
          "internalType": "uint256",
          "name": "tokenId",
          "type": "uint256"
        }
      ],
      "name": "burnToken",
      "outputs": [],
      "stateMutability": "nonpayable",
      "type": "function"
    },
    {
      "inputs": [
        {
          "internalType": "address",
          "name": "from",
          "type": "address"
        },
        {
          "internalType": "uint256",
          "name": "tokenId",
          "type": "uint256"
        }
      ],
      "name": "generateNonce",
      "outputs": [
        {
          "internalType": "bytes32",
          "name": "",
          "type": "bytes32"
        }
      ],
      "stateMutability": "view",
      "type": "function"
    },
    {
      "inputs": [
        {
          "internalType": "uint256",
          "name": "_startDate",
          "type": "uint256"
        },
        {
          "internalType": "uint256",
          "name": "_maturityDate",
          "type": "uint256"
        },
        {
          "internalType": "string",
          "name": "_name",
          "type": "string"
        },
        {
          "internalType": "uint256",
          "name": "_sumAssured",
          "type": "uint256"
        },
        {
          "internalType": "address",
          "name": "_to",
          "type": "address"
        },
        {
          "internalType": "uint256",
          "name": "_tokenId",
          "type": "uint256"
        }
      ],
      "name": "mirrorToken",
      "outputs": [
        {
          "internalType": "uint256",
          "name": "",
          "type": "uint256"
        }
      ],
      "stateMutability": "nonpayable",
      "type": "function"
    },
    {
      "inputs": [
        {
          "internalType": "address",
          "name": "",
          "type": "address"
        },
        {
          "internalType": "address",
          "name": "",
          "type": "address"
        },
        {
          "internalType": "uint256",
          "name": "",
          "type": "uint256"
        },
        {
          "internalType": "bytes",
          "name": "",
          "type": "bytes"
        }
      ],
      "name": "onERC721Received",
      "outputs": [
        {
          "internalType": "bytes4",
          "name": "",
          "type": "bytes4"
        }
      ],
      "stateMutability": "nonpayable",
      "type": "function"
    },
    {
      "inputs": [
        {
          "internalType": "bytes32",
          "name": "",
          "type": "bytes32"
        }
      ],
      "name": "processedNonces",
      "outputs": [
        {
          "internalType": "bool",
          "name": "",
          "type": "bool"
        }
      ],
      "stateMutability": "view",
      "type": "function"
    },
    {
      "inputs": [
        {
          "internalType": "address",
          "name": "_address",
          "type": "address"
        }
      ],
      "name": "setTokenAddress",
      "outputs": [],
      "stateMutability": "nonpayable",
      "type": "function"
    },
    {
      "inputs": [],
      "name": "token",
      "outputs": [
        {
          "internalType": "address",
          "name": "",
          "type": "address"
        }
      ],
      "stateMutability": "view",
      "type": "function"
    }
  ],
  "bytecode": "0x6080604052610e6e806100136000396000f3fe608060405234801561001057600080fd5b506004361061007d5760003560e01c8063404a4edb1161005b578063404a4edb146100fe57806359f306df1461012e5780637b47ec1a1461015e578063fc0c546a1461017a5761007d565b806309da1fb014610082578063150b7a02146100b257806326a4e8d2146100e2575b600080fd5b61009c60048036038101906100979190610667565b610198565b6040516100a991906106c0565b60405180910390f35b6100cc60048036038101906100c79190610821565b6101cf565b6040516100d991906108df565b60405180910390f35b6100fc60048036038101906100f791906108fa565b6101e3565b005b61011860048036038101906101139190610953565b610226565b604051610125919061099b565b60405180910390f35b61014860048036038101906101439190610a57565b610246565b6040516101559190610b0f565b60405180910390f35b61017860048036038101906101739190610b2a565b610394565b005b61018261059b565b60405161018f9190610b66565b60405180910390f35b6000448383426040516020016101b19493929190610bea565b60405160208183030381529060405280519060200120905092915050565b600063150b7a0260e01b9050949350505050565b806000806101000a81548173ffffffffffffffffffffffffffffffffffffffff021916908373ffffffffffffffffffffffffffffffffffffffff16021790555050565b60016020528060005260406000206000915054906101000a900460ff1681565b6000806102533384610198565b90506001600082815260200190815260200160002060009054906101000a900460ff16156102b6576040517f08c379a00000000000000000000000000000000000000000000000000000000081526004016102ad90610c95565b60405180910390fd5b600180600083815260200190815260200160002060006101000a81548160ff02191690831515021790555060008054906101000a900473ffffffffffffffffffffffffffffffffffffffff1673ffffffffffffffffffffffffffffffffffffffff1663432352ae8989898989896040518763ffffffff1660e01b815260040161034496959493929190610d23565b6020604051808303816000875af1158015610363573d6000803e3d6000fd5b505050506040513d601f19601f820116820180604052508101906103879190610da0565b9150509695505050505050565b60008060009054906101000a900473ffffffffffffffffffffffffffffffffffffffff1673ffffffffffffffffffffffffffffffffffffffff166309c08699836040518263ffffffff1660e01b81526004016103f09190610b0f565b602060405180830381865afa15801561040d573d6000803e3d6000fd5b505050506040513d601f19601f820116820180604052508101906104319190610da0565b905060008060009054906101000a900473ffffffffffffffffffffffffffffffffffffffff1673ffffffffffffffffffffffffffffffffffffffff16636352211e846040518263ffffffff1660e01b815260040161048f9190610b0f565b602060405180830381865afa1580156104ac573d6000803e3d6000fd5b505050506040513d601f19601f820116820180604052508101906104d09190610de2565b905060008054906101000a900473ffffffffffffffffffffffffffffffffffffffff1673ffffffffffffffffffffffffffffffffffffffff1663509df516846040518263ffffffff1660e01b815260040161052b9190610b0f565b600060405180830381600087803b15801561054557600080fd5b505af1158015610559573d6000803e3d6000fd5b505050507ff6554c3a5d28e08c120b5a69c7edbaf52f935bd2596a60b8a18e282cd257cddb828260405161058e929190610e0f565b60405180910390a1505050565b60008054906101000a900473ffffffffffffffffffffffffffffffffffffffff1681565b6000604051905090565b600080fd5b600080fd5b600073ffffffffffffffffffffffffffffffffffffffff82169050919050565b60006105fe826105d3565b9050919050565b61060e816105f3565b811461061957600080fd5b50565b60008135905061062b81610605565b92915050565b6000819050919050565b61064481610631565b811461064f57600080fd5b50565b6000813590506106618161063b565b92915050565b6000806040838503121561067e5761067d6105c9565b5b600061068c8582860161061c565b925050602061069d85828601610652565b9150509250929050565b6000819050919050565b6106ba816106a7565b82525050565b60006020820190506106d560008301846106b1565b92915050565b600080fd5b600080fd5b6000601f19601f8301169050919050565b7f4e487b7100000000000000000000000000000000000000000000000000000000600052604160045260246000fd5b61072e826106e5565b810181811067ffffffffffffffff8211171561074d5761074c6106f6565b5b80604052505050565b60006107606105bf565b905061076c8282610725565b919050565b600067ffffffffffffffff82111561078c5761078b6106f6565b5b610795826106e5565b9050602081019050919050565b82818337600083830152505050565b60006107c46107bf84610771565b610756565b9050828152602081018484840111156107e0576107df6106e0565b5b6107eb8482856107a2565b509392505050565b600082601f830112610808576108076106db565b5b81356108188482602086016107b1565b91505092915050565b6000806000806080858703121561083b5761083a6105c9565b5b60006108498782880161061c565b945050602061085a8782880161061c565b935050604061086b87828801610652565b925050606085013567ffffffffffffffff81111561088c5761088b6105ce565b5b610898878288016107f3565b91505092959194509250565b60007fffffffff0000000000000000000000000000000000000000000000000000000082169050919050565b6108d9816108a4565b82525050565b60006020820190506108f460008301846108d0565b92915050565b6000602082840312156109105761090f6105c9565b5b600061091e8482850161061c565b91505092915050565b610930816106a7565b811461093b57600080fd5b50565b60008135905061094d81610927565b92915050565b600060208284031215610969576109686105c9565b5b60006109778482850161093e565b91505092915050565b60008115159050919050565b61099581610980565b82525050565b60006020820190506109b0600083018461098c565b92915050565b600067ffffffffffffffff8211156109d1576109d06106f6565b5b6109da826106e5565b9050602081019050919050565b60006109fa6109f5846109b6565b610756565b905082815260208101848484011115610a1657610a156106e0565b5b610a218482856107a2565b509392505050565b600082601f830112610a3e57610a3d6106db565b5b8135610a4e8482602086016109e7565b91505092915050565b60008060008060008060c08789031215610a7457610a736105c9565b5b6000610a8289828a01610652565b9650506020610a9389828a01610652565b955050604087013567ffffffffffffffff811115610ab457610ab36105ce565b5b610ac089828a01610a29565b9450506060610ad189828a01610652565b9350506080610ae289828a0161061c565b92505060a0610af389828a01610652565b9150509295509295509295565b610b0981610631565b82525050565b6000602082019050610b246000830184610b00565b92915050565b600060208284031215610b4057610b3f6105c9565b5b6000610b4e84828501610652565b91505092915050565b610b60816105f3565b82525050565b6000602082019050610b7b6000830184610b57565b92915050565b6000819050919050565b610b9c610b9782610631565b610b81565b82525050565b60008160601b9050919050565b6000610bba82610ba2565b9050919050565b6000610bcc82610baf565b9050919050565b610be4610bdf826105f3565b610bc1565b82525050565b6000610bf68287610b8b565b602082019150610c068286610bd3565b601482019150610c168285610b8b565b602082019150610c268284610b8b565b60208201915081905095945050505050565b600082825260208201905092915050565b7f7472616e7366657220616c72656164792070726f636573736564000000000000600082015250565b6000610c7f601a83610c38565b9150610c8a82610c49565b602082019050919050565b60006020820190508181036000830152610cae81610c72565b9050919050565b600081519050919050565b60005b83811015610cde578082015181840152602081019050610cc3565b60008484015250505050565b6000610cf582610cb5565b610cff8185610c38565b9350610d0f818560208601610cc0565b610d18816106e5565b840191505092915050565b600060c082019050610d386000830189610b00565b610d456020830188610b00565b8181036040830152610d578187610cea565b9050610d666060830186610b00565b610d736080830185610b57565b610d8060a0830184610b00565b979650505050505050565b600081519050610d9a8161063b565b92915050565b600060208284031215610db657610db56105c9565b5b6000610dc484828501610d8b565b91505092915050565b600081519050610ddc81610605565b92915050565b600060208284031215610df857610df76105c9565b5b6000610e0684828501610dcd565b91505092915050565b6000604082019050610e246000830185610b00565b610e316020830184610b57565b939250505056fea2646970667358221220c3294ee1f5fa7d749a6410560645bf67a4ac99826efc9d583a396ec11d917e7564736f6c63430008140033",
  "linkReferences": {},
  "deployedLinkReferences": {}
}