{
  "_format": "hh-sol-artifact-1",
  "contractName": "DestinationTokenMinter",
  "sourceName": "contracts/DestinationTokenMinter.sol",
  "abi": [
    {
      "inputs": [
        {
          "internalType": "address",
          "name": "_bridge",
          "type": "address"
        }
      ],
      "stateMutability": "payable",
      "type": "constructor"
    },
    {
      "inputs": [
        {
          "internalType": "address",
          "name": "sender",
          "type": "address"
        },
        {
          "internalType": "uint256",
          "name": "tokenId",
          "type": "uint256"
        },
        {
          "internalType": "address",
          "name": "owner",
          "type": "address"
        }
      ],
      "name": "ERC721IncorrectOwner",
      "type": "error"
    },
    {
      "inputs": [
        {
          "internalType": "address",
          "name": "operator",
          "type": "address"
        },
        {
          "internalType": "uint256",
          "name": "tokenId",
          "type": "uint256"
        }
      ],
      "name": "ERC721InsufficientApproval",
      "type": "error"
    },
    {
      "inputs": [
        {
          "internalType": "address",
          "name": "approver",
          "type": "address"
        }
      ],
      "name": "ERC721InvalidApprover",
      "type": "error"
    },
    {
      "inputs": [
        {
          "internalType": "address",
          "name": "operator",
          "type": "address"
        }
      ],
      "name": "ERC721InvalidOperator",
      "type": "error"
    },
    {
      "inputs": [
        {
          "internalType": "address",
          "name": "owner",
          "type": "address"
        }
      ],
      "name": "ERC721InvalidOwner",
      "type": "error"
    },
    {
      "inputs": [
        {
          "internalType": "address",
          "name": "receiver",
          "type": "address"
        }
      ],
      "name": "ERC721InvalidReceiver",
      "type": "error"
    },
    {
      "inputs": [
        {
          "internalType": "address",
          "name": "sender",
          "type": "address"
        }
      ],
      "name": "ERC721InvalidSender",
      "type": "error"
    },
    {
      "inputs": [
        {
          "internalType": "uint256",
          "name": "tokenId",
          "type": "uint256"
        }
      ],
      "name": "ERC721NonexistentToken",
      "type": "error"
    },
    {
      "anonymous": false,
      "inputs": [
        {
          "indexed": true,
          "internalType": "address",
          "name": "owner",
          "type": "address"
        },
        {
          "indexed": true,
          "internalType": "address",
          "name": "approved",
          "type": "address"
        },
        {
          "indexed": true,
          "internalType": "uint256",
          "name": "tokenId",
          "type": "uint256"
        }
      ],
      "name": "Approval",
      "type": "event"
    },
    {
      "anonymous": false,
      "inputs": [
        {
          "indexed": true,
          "internalType": "address",
          "name": "owner",
          "type": "address"
        },
        {
          "indexed": true,
          "internalType": "address",
          "name": "operator",
          "type": "address"
        },
        {
          "indexed": false,
          "internalType": "bool",
          "name": "approved",
          "type": "bool"
        }
      ],
      "name": "ApprovalForAll",
      "type": "event"
    },
    {
      "anonymous": false,
      "inputs": [
        {
          "indexed": true,
          "internalType": "address",
          "name": "from",
          "type": "address"
        },
        {
          "indexed": true,
          "internalType": "address",
          "name": "to",
          "type": "address"
        },
        {
          "indexed": true,
          "internalType": "uint256",
          "name": "tokenId",
          "type": "uint256"
        }
      ],
      "name": "Transfer",
      "type": "event"
    },
    {
      "inputs": [
        {
          "internalType": "address",
          "name": "to",
          "type": "address"
        },
        {
          "internalType": "uint256",
          "name": "tokenId",
          "type": "uint256"
        }
      ],
      "name": "approve",
      "outputs": [],
      "stateMutability": "nonpayable",
      "type": "function"
    },
    {
      "inputs": [
        {
          "internalType": "address",
          "name": "owner",
          "type": "address"
        }
      ],
      "name": "balanceOf",
      "outputs": [
        {
          "internalType": "uint256",
          "name": "",
          "type": "uint256"
        }
      ],
      "stateMutability": "view",
      "type": "function"
    },
    {
      "inputs": [
        {
          "internalType": "uint256",
          "name": "tokenId",
          "type": "uint256"
        }
      ],
      "name": "burn",
      "outputs": [],
      "stateMutability": "nonpayable",
      "type": "function"
    },
    {
      "inputs": [
        {
          "internalType": "uint256",
          "name": "_tokenId",
          "type": "uint256"
        }
      ],
      "name": "burnMirroredPolicy",
      "outputs": [],
      "stateMutability": "nonpayable",
      "type": "function"
    },
    {
      "inputs": [
        {
          "internalType": "uint256",
          "name": "_startDate",
          "type": "uint256"
        },
        {
          "internalType": "uint256",
          "name": "_maturityDate",
          "type": "uint256"
        },
        {
          "internalType": "string",
          "name": "_name",
          "type": "string"
        },
        {
          "internalType": "uint256",
          "name": "_sumAssured",
          "type": "uint256"
        },
        {
          "internalType": "address",
          "name": "_to",
          "type": "address"
        },
        {
          "internalType": "uint256",
          "name": "_tokenId",
          "type": "uint256"
        }
      ],
      "name": "createNewMirroredPolicy",
      "outputs": [
        {
          "internalType": "uint256",
          "name": "",
          "type": "uint256"
        }
      ],
      "stateMutability": "nonpayable",
      "type": "function"
    },
    {
      "inputs": [
        {
          "internalType": "uint256",
          "name": "tokenId",
          "type": "uint256"
        }
      ],
      "name": "getApproved",
      "outputs": [
        {
          "internalType": "address",
          "name": "",
          "type": "address"
        }
      ],
      "stateMutability": "view",
      "type": "function"
    },
    {
      "inputs": [
        {
          "internalType": "uint256",
          "name": "_tokenId",
          "type": "uint256"
        }
      ],
      "name": "getSourceTokenID",
      "outputs": [
        {
          "internalType": "uint256",
          "name": "",
          "type": "uint256"
        }
      ],
      "stateMutability": "view",
      "type": "function"
    },
    {
      "inputs": [
        {
          "internalType": "address",
          "name": "",
          "type": "address"
        },
        {
          "internalType": "uint256",
          "name": "",
          "type": "uint256"
        }
      ],
      "name": "insuranceToOwner",
      "outputs": [
        {
          "internalType": "uint256",
          "name": "startDate",
          "type": "uint256"
        },
        {
          "internalType": "uint256",
          "name": "maturityDate",
          "type": "uint256"
        },
        {
          "internalType": "string",
          "name": "name",
          "type": "string"
        },
        {
          "internalType": "uint256",
          "name": "sumAssured",
          "type": "uint256"
        },
        {
          "internalType": "uint256",
          "name": "tokenId",
          "type": "uint256"
        },
        {
          "internalType": "address",
          "name": "owner",
          "type": "address"
        }
      ],
      "stateMutability": "view",
      "type": "function"
    },
    {
      "inputs": [
        {
          "internalType": "uint256",
          "name": "",
          "type": "uint256"
        }
      ],
      "name": "insurances",
      "outputs": [
        {
          "internalType": "uint256",
          "name": "startDate",
          "type": "uint256"
        },
        {
          "internalType": "uint256",
          "name": "maturityDate",
          "type": "uint256"
        },
        {
          "internalType": "string",
          "name": "name",
          "type": "string"
        },
        {
          "internalType": "uint256",
          "name": "sumAssured",
          "type": "uint256"
        },
        {
          "internalType": "uint256",
          "name": "tokenId",
          "type": "uint256"
        },
        {
          "internalType": "address",
          "name": "owner",
          "type": "address"
        }
      ],
      "stateMutability": "view",
      "type": "function"
    },
    {
      "inputs": [
        {
          "internalType": "address",
          "name": "owner",
          "type": "address"
        },
        {
          "internalType": "address",
          "name": "operator",
          "type": "address"
        }
      ],
      "name": "isApprovedForAll",
      "outputs": [
        {
          "internalType": "bool",
          "name": "",
          "type": "bool"
        }
      ],
      "stateMutability": "view",
      "type": "function"
    },
    {
      "inputs": [],
      "name": "name",
      "outputs": [
        {
          "internalType": "string",
          "name": "",
          "type": "string"
        }
      ],
      "stateMutability": "view",
      "type": "function"
    },
    {
      "inputs": [
        {
          "internalType": "uint256",
          "name": "tokenId",
          "type": "uint256"
        }
      ],
      "name": "ownerOf",
      "outputs": [
        {
          "internalType": "address",
          "name": "",
          "type": "address"
        }
      ],
      "stateMutability": "view",
      "type": "function"
    },
    {
      "inputs": [
        {
          "internalType": "address",
          "name": "from",
          "type": "address"
        },
        {
          "internalType": "address",
          "name": "to",
          "type": "address"
        },
        {
          "internalType": "uint256",
          "name": "tokenId",
          "type": "uint256"
        }
      ],
      "name": "safeTransferFrom",
      "outputs": [],
      "stateMutability": "nonpayable",
      "type": "function"
    },
    {
      "inputs": [
        {
          "internalType": "address",
          "name": "from",
          "type": "address"
        },
        {
          "internalType": "address",
          "name": "to",
          "type": "address"
        },
        {
          "internalType": "uint256",
          "name": "tokenId",
          "type": "uint256"
        },
        {
          "internalType": "bytes",
          "name": "data",
          "type": "bytes"
        }
      ],
      "name": "safeTransferFrom",
      "outputs": [],
      "stateMutability": "nonpayable",
      "type": "function"
    },
    {
      "inputs": [
        {
          "internalType": "address",
          "name": "operator",
          "type": "address"
        },
        {
          "internalType": "bool",
          "name": "approved",
          "type": "bool"
        }
      ],
      "name": "setApprovalForAll",
      "outputs": [],
      "stateMutability": "nonpayable",
      "type": "function"
    },
    {
      "inputs": [
        {
          "internalType": "bytes4",
          "name": "interfaceId",
          "type": "bytes4"
        }
      ],
      "name": "supportsInterface",
      "outputs": [
        {
          "internalType": "bool",
          "name": "",
          "type": "bool"
        }
      ],
      "stateMutability": "view",
      "type": "function"
    },
    {
      "inputs": [],
      "name": "symbol",
      "outputs": [
        {
          "internalType": "string",
          "name": "",
          "type": "string"
        }
      ],
      "stateMutability": "view",
      "type": "function"
    },
    {
      "inputs": [
        {
          "internalType": "uint256",
          "name": "tokenId",
          "type": "uint256"
        }
      ],
      "name": "tokenURI",
      "outputs": [
        {
          "internalType": "string",
          "name": "",
          "type": "string"
        }
      ],
      "stateMutability": "view",
      "type": "function"
    },
    {
      "inputs": [
        {
          "internalType": "address",
          "name": "from",
          "type": "address"
        },
        {
          "internalType": "address",
          "name": "to",
          "type": "address"
        },
        {
          "internalType": "uint256",
          "name": "tokenId",
          "type": "uint256"
        }
      ],
      "name": "transferFrom",
      "outputs": [],
      "stateMutability": "nonpayable",
      "type": "function"
    },
    {
      "inputs": [
        {
          "internalType": "uint256",
          "name": "_tokenId",
          "type": "uint256"
        },
        {
          "internalType": "address",
          "name": "_from",
          "type": "address"
        },
        {
          "internalType": "address",
          "name": "_to",
          "type": "address"
        }
      ],
      "name": "transferPolicyToNewOwner",
      "outputs": [],
      "stateMutability": "nonpayable",
      "type": "function"
    }
  ],
  "bytecode": "0x60806040526000600655604051620034c5380380620034c583398181016040528101906200002e919062000172565b6040518060400160405280600c81526020017f442d57496e737572616e636500000000000000000000000000000000000000008152506040518060400160405280600481526020017f4457494e000000000000000000000000000000000000000000000000000000008152508160009081620000ab91906200041e565b508060019081620000bd91906200041e565b50505080600960006101000a81548173ffffffffffffffffffffffffffffffffffffffff021916908373ffffffffffffffffffffffffffffffffffffffff1602179055505062000505565b600080fd5b600073ffffffffffffffffffffffffffffffffffffffff82169050919050565b60006200013a826200010d565b9050919050565b6200014c816200012d565b81146200015857600080fd5b50565b6000815190506200016c8162000141565b92915050565b6000602082840312156200018b576200018a62000108565b5b60006200019b848285016200015b565b91505092915050565b600081519050919050565b7f4e487b7100000000000000000000000000000000000000000000000000000000600052604160045260246000fd5b7f4e487b7100000000000000000000000000000000000000000000000000000000600052602260045260246000fd5b600060028204905060018216806200022657607f821691505b6020821081036200023c576200023b620001de565b5b50919050565b60008190508160005260206000209050919050565b60006020601f8301049050919050565b600082821b905092915050565b600060088302620002a67fffffffffffffffffffffffffffffffffffffffffffffffffffffffffffffffff8262000267565b620002b2868362000267565b95508019841693508086168417925050509392505050565b6000819050919050565b6000819050919050565b6000620002ff620002f9620002f384620002ca565b620002d4565b620002ca565b9050919050565b6000819050919050565b6200031b83620002de565b620003336200032a8262000306565b84845462000274565b825550505050565b600090565b6200034a6200033b565b6200035781848462000310565b505050565b5b818110156200037f576200037360008262000340565b6001810190506200035d565b5050565b601f821115620003ce57620003988162000242565b620003a38462000257565b81016020851015620003b3578190505b620003cb620003c28562000257565b8301826200035c565b50505b505050565b600082821c905092915050565b6000620003f360001984600802620003d3565b1980831691505092915050565b60006200040e8383620003e0565b9150826002028217905092915050565b6200042982620001a4565b67ffffffffffffffff811115620004455762000444620001af565b5b6200045182546200020d565b6200045e82828562000383565b600060209050601f83116001811462000496576000841562000481578287015190505b6200048d858262000400565b865550620004fd565b601f198416620004a68662000242565b60005b82811015620004d057848901518255600182019150602085019450602081019050620004a9565b86831015620004f05784890151620004ec601f891682620003e0565b8355505b6001600288020188555050505b505050505050565b612fb080620005156000396000f3fe608060405234801561001057600080fd5b506004361061012c5760003560e01c8063509df516116100ad578063961b6b9211610071578063961b6b9214610383578063a22cb4651461039f578063b88d4fde146103bb578063c87b56dd146103d7578063e985e9c5146104075761012c565b8063509df516146102b457806359fb49f9146102d05780636352211e1461030557806370a082311461033557806395d89b41146103655761012c565b806323b872dd116100f457806323b872dd146101fb57806342842e0e1461021757806342966c6814610233578063432352ae1461024f5780634431cfc91461027f5761012c565b806301ffc9a71461013157806306fdde0314610161578063081812fc1461017f578063095ea7b3146101af57806309c08699146101cb575b600080fd5b61014b6004803603810190610146919061223f565b610437565b6040516101589190612287565b60405180910390f35b610169610449565b6040516101769190612332565b60405180910390f35b6101996004803603810190610194919061238a565b6104db565b6040516101a691906123f8565b60405180910390f35b6101c960048036038101906101c4919061243f565b6104f7565b005b6101e560048036038101906101e0919061238a565b61050d565b6040516101f2919061248e565b60405180910390f35b610215600480360381019061021091906124a9565b6105bd565b005b610231600480360381019061022c91906124a9565b6106bf565b005b61024d6004803603810190610248919061238a565b6106df565b005b61026960048036038101906102649190612631565b610758565b604051610276919061248e565b60405180910390f35b6102996004803603810190610294919061243f565b6109f5565b6040516102ab969594939291906126da565b60405180910390f35b6102ce60048036038101906102c9919061238a565b610af6565b005b6102ea60048036038101906102e5919061238a565b610b92565b6040516102fc969594939291906126da565b60405180910390f35b61031f600480360381019061031a919061238a565b610c76565b60405161032c91906123f8565b60405180910390f35b61034f600480360381019061034a9190612742565b610c88565b60405161035c919061248e565b60405180910390f35b61036d610d42565b60405161037a9190612332565b60405180910390f35b61039d6004803603810190610398919061276f565b610dd4565b005b6103b960048036038101906103b491906127ee565b6111c0565b005b6103d560048036038101906103d091906128cf565b6111d6565b005b6103f160048036038101906103ec919061238a565b6111f3565b6040516103fe9190612332565b60405180910390f35b610421600480360381019061041c9190612952565b611205565b60405161042e9190612287565b60405180910390f35b600061044282611299565b9050919050565b606060008054610458906129c1565b80601f0160208091040260200160405190810160405280929190818152602001828054610484906129c1565b80156104d15780601f106104a6576101008083540402835291602001916104d1565b820191906000526020600020905b8154815290600101906020018083116104b457829003601f168201915b5050505050905090565b60006104e68261137b565b506104f082611403565b9050919050565b6105098282610504611440565b611448565b5050565b6000600960009054906101000a900473ffffffffffffffffffffffffffffffffffffffff1673ffffffffffffffffffffffffffffffffffffffff163373ffffffffffffffffffffffffffffffffffffffff161461059f576040517f08c379a000000000000000000000000000000000000000000000000000000000815260040161059690612a64565b60405180910390fd5b60076000838152602001908152602001600020600401549050919050565b600073ffffffffffffffffffffffffffffffffffffffff168273ffffffffffffffffffffffffffffffffffffffff160361062f5760006040517f64a0ae9200000000000000000000000000000000000000000000000000000000815260040161062691906123f8565b60405180910390fd5b6000610643838361063e611440565b61145a565b90508373ffffffffffffffffffffffffffffffffffffffff168173ffffffffffffffffffffffffffffffffffffffff16146106b9578382826040517f64283d7b0000000000000000000000000000000000000000000000000000000081526004016106b093929190612a84565b60405180910390fd5b50505050565b6106da838383604051806020016040528060008152506111d6565b505050565b6007600082815260200190815260200160002060008082016000905560018201600090556002820160006107139190612176565b600382016000905560048201600090556005820160006101000a81549073ffffffffffffffffffffffffffffffffffffffff0219169055505061075581611674565b50565b6000600960009054906101000a900473ffffffffffffffffffffffffffffffffffffffff1673ffffffffffffffffffffffffffffffffffffffff163373ffffffffffffffffffffffffffffffffffffffff16146107ea576040517f08c379a00000000000000000000000000000000000000000000000000000000081526004016107e190612a64565b60405180910390fd5b6000600654905060006040518060c001604052808a81526020018981526020018881526020018781526020018581526020018673ffffffffffffffffffffffffffffffffffffffff1681525090506006600081548092919061084b90612aea565b919050555080600760008481526020019081526020016000206000820151816000015560208201518160010155604082015181600201908161088d9190612cde565b50606082015181600301556080820151816004015560a08201518160050160006101000a81548173ffffffffffffffffffffffffffffffffffffffff021916908373ffffffffffffffffffffffffffffffffffffffff160217905550905050600860008673ffffffffffffffffffffffffffffffffffffffff1673ffffffffffffffffffffffffffffffffffffffff1681526020019081526020016000208190806001815401808255809150506001900390600052602060002090600602016000909190919091506000820151816000015560208201518160010155604082015181600201908161097e9190612cde565b50606082015181600301556080820151816004015560a08201518160050160006101000a81548173ffffffffffffffffffffffffffffffffffffffff021916908373ffffffffffffffffffffffffffffffffffffffff16021790555050506109e6858361168b565b81925050509695505050505050565b60086020528160005260406000208181548110610a1157600080fd5b906000526020600020906006020160009150915050806000015490806001015490806002018054610a41906129c1565b80601f0160208091040260200160405190810160405280929190818152602001828054610a6d906129c1565b8015610aba5780601f10610a8f57610100808354040283529160200191610aba565b820191906000526020600020905b815481529060010190602001808311610a9d57829003601f168201915b5050505050908060030154908060040154908060050160009054906101000a900473ffffffffffffffffffffffffffffffffffffffff16905086565b600960009054906101000a900473ffffffffffffffffffffffffffffffffffffffff1673ffffffffffffffffffffffffffffffffffffffff163373ffffffffffffffffffffffffffffffffffffffff1614610b86576040517f08c379a0000000000000000000000000000000000000000000000000000000008152600401610b7d90612a64565b60405180910390fd5b610b8f816106df565b50565b6007602052806000526040600020600091509050806000015490806001015490806002018054610bc1906129c1565b80601f0160208091040260200160405190810160405280929190818152602001828054610bed906129c1565b8015610c3a5780601f10610c0f57610100808354040283529160200191610c3a565b820191906000526020600020905b815481529060010190602001808311610c1d57829003601f168201915b5050505050908060030154908060040154908060050160009054906101000a900473ffffffffffffffffffffffffffffffffffffffff16905086565b6000610c818261137b565b9050919050565b60008073ffffffffffffffffffffffffffffffffffffffff168273ffffffffffffffffffffffffffffffffffffffff1603610cfb5760006040517f89c62b64000000000000000000000000000000000000000000000000000000008152600401610cf291906123f8565b60405180910390fd5b600360008373ffffffffffffffffffffffffffffffffffffffff1673ffffffffffffffffffffffffffffffffffffffff168152602001908152602001600020549050919050565b606060018054610d51906129c1565b80601f0160208091040260200160405190810160405280929190818152602001828054610d7d906129c1565b8015610dca5780601f10610d9f57610100808354040283529160200191610dca565b820191906000526020600020905b815481529060010190602001808311610dad57829003601f168201915b5050505050905090565b6000600760008581526020019081526020016000206040518060c00160405290816000820154815260200160018201548152602001600282018054610e18906129c1565b80601f0160208091040260200160405190810160405280929190818152602001828054610e44906129c1565b8015610e915780601f10610e6657610100808354040283529160200191610e91565b820191906000526020600020905b815481529060010190602001808311610e7457829003601f168201915b5050505050815260200160038201548152602001600482015481526020016005820160009054906101000a900473ffffffffffffffffffffffffffffffffffffffff1673ffffffffffffffffffffffffffffffffffffffff1673ffffffffffffffffffffffffffffffffffffffff1681525050905060005b600860008573ffffffffffffffffffffffffffffffffffffffff1673ffffffffffffffffffffffffffffffffffffffff16815260200190815260200160002080549050811015611091578160800151600860008673ffffffffffffffffffffffffffffffffffffffff1673ffffffffffffffffffffffffffffffffffffffff1681526020019081526020016000208281548110610fa957610fa8612db0565b5b9060005260206000209060060201600401540361107e57600860008573ffffffffffffffffffffffffffffffffffffffff1673ffffffffffffffffffffffffffffffffffffffff168152602001908152602001600020818154811061101157611010612db0565b5b906000526020600020906006020160008082016000905560018201600090556002820160006110409190612176565b600382016000905560048201600090556005820160006101000a81549073ffffffffffffffffffffffffffffffffffffffff02191690555050611091565b808061108990612aea565b915050610f09565b50818160a0019073ffffffffffffffffffffffffffffffffffffffff16908173ffffffffffffffffffffffffffffffffffffffff1681525050600860008373ffffffffffffffffffffffffffffffffffffffff1673ffffffffffffffffffffffffffffffffffffffff1681526020019081526020016000208190806001815401808255809150506001900390600052602060002090600602016000909190919091506000820151816000015560208201518160010155604082015181600201908161115c9190612cde565b50606082015181600301556080820151816004015560a08201518160050160006101000a81548173ffffffffffffffffffffffffffffffffffffffff021916908373ffffffffffffffffffffffffffffffffffffffff160217905550505050505050565b6111d26111cb611440565b83836116a9565b5050565b6111e18484846105bd565b6111ed84848484611818565b50505050565b60606111fe826119cf565b9050919050565b6000600560008473ffffffffffffffffffffffffffffffffffffffff1673ffffffffffffffffffffffffffffffffffffffff16815260200190815260200160002060008373ffffffffffffffffffffffffffffffffffffffff1673ffffffffffffffffffffffffffffffffffffffff16815260200190815260200160002060009054906101000a900460ff16905092915050565b60007f80ac58cd000000000000000000000000000000000000000000000000000000007bffffffffffffffffffffffffffffffffffffffffffffffffffffffff1916827bffffffffffffffffffffffffffffffffffffffffffffffffffffffff1916148061136457507f5b5e139f000000000000000000000000000000000000000000000000000000007bffffffffffffffffffffffffffffffffffffffffffffffffffffffff1916827bffffffffffffffffffffffffffffffffffffffffffffffffffffffff1916145b80611374575061137382611a38565b5b9050919050565b60008061138783611aa2565b9050600073ffffffffffffffffffffffffffffffffffffffff168173ffffffffffffffffffffffffffffffffffffffff16036113fa57826040517f7e2732890000000000000000000000000000000000000000000000000000000081526004016113f1919061248e565b60405180910390fd5b80915050919050565b60006004600083815260200190815260200160002060009054906101000a900473ffffffffffffffffffffffffffffffffffffffff169050919050565b600033905090565b6114558383836001611adf565b505050565b60008061146684611aa2565b9050600073ffffffffffffffffffffffffffffffffffffffff168373ffffffffffffffffffffffffffffffffffffffff16146114a8576114a7818486611ca4565b5b600073ffffffffffffffffffffffffffffffffffffffff168173ffffffffffffffffffffffffffffffffffffffff1614611539576114ea600085600080611adf565b6001600360008373ffffffffffffffffffffffffffffffffffffffff1673ffffffffffffffffffffffffffffffffffffffff168152602001908152602001600020600082825403925050819055505b600073ffffffffffffffffffffffffffffffffffffffff168573ffffffffffffffffffffffffffffffffffffffff16146115bc576001600360008773ffffffffffffffffffffffffffffffffffffffff1673ffffffffffffffffffffffffffffffffffffffff168152602001908152602001600020600082825401925050819055505b846002600086815260200190815260200160002060006101000a81548173ffffffffffffffffffffffffffffffffffffffff021916908373ffffffffffffffffffffffffffffffffffffffff160217905550838573ffffffffffffffffffffffffffffffffffffffff168273ffffffffffffffffffffffffffffffffffffffff167fddf252ad1be2c89b69c2b068fc378daa952ba7f163c4a11628f55a4df523b3ef60405160405180910390a4809150509392505050565b611687600082611682611440565b61145a565b5050565b6116a5828260405180602001604052806000815250611d68565b5050565b600073ffffffffffffffffffffffffffffffffffffffff168273ffffffffffffffffffffffffffffffffffffffff160361171a57816040517f5b08ba1800000000000000000000000000000000000000000000000000000000815260040161171191906123f8565b60405180910390fd5b80600560008573ffffffffffffffffffffffffffffffffffffffff1673ffffffffffffffffffffffffffffffffffffffff16815260200190815260200160002060008473ffffffffffffffffffffffffffffffffffffffff1673ffffffffffffffffffffffffffffffffffffffff16815260200190815260200160002060006101000a81548160ff0219169083151502179055508173ffffffffffffffffffffffffffffffffffffffff168373ffffffffffffffffffffffffffffffffffffffff167f17307eab39ab6107e8899845ad3d59bd9653f200f220920489ca2b5937696c318360405161180b9190612287565b60405180910390a3505050565b60008373ffffffffffffffffffffffffffffffffffffffff163b11156119c9578273ffffffffffffffffffffffffffffffffffffffff1663150b7a0261185c611440565b8685856040518563ffffffff1660e01b815260040161187e9493929190612e34565b6020604051808303816000875af19250505080156118ba57506040513d601f19601f820116820180604052508101906118b79190612e95565b60015b61193e573d80600081146118ea576040519150601f19603f3d011682016040523d82523d6000602084013e6118ef565b606091505b50600081510361193657836040517f64a0ae9200000000000000000000000000000000000000000000000000000000815260040161192d91906123f8565b60405180910390fd5b805181602001fd5b63150b7a0260e01b7bffffffffffffffffffffffffffffffffffffffffffffffffffffffff1916817bffffffffffffffffffffffffffffffffffffffffffffffffffffffff1916146119c757836040517f64a0ae920000000000000000000000000000000000000000000000000000000081526004016119be91906123f8565b60405180910390fd5b505b50505050565b60606119da8261137b565b5060006119e5611d84565b90506000815111611a055760405180602001604052806000815250611a30565b80611a0f84611d9b565b604051602001611a20929190612efe565b6040516020818303038152906040525b915050919050565b60007f01ffc9a7000000000000000000000000000000000000000000000000000000007bffffffffffffffffffffffffffffffffffffffffffffffffffffffff1916827bffffffffffffffffffffffffffffffffffffffffffffffffffffffff1916149050919050565b60006002600083815260200190815260200160002060009054906101000a900473ffffffffffffffffffffffffffffffffffffffff169050919050565b8080611b185750600073ffffffffffffffffffffffffffffffffffffffff168273ffffffffffffffffffffffffffffffffffffffff1614155b15611c4c576000611b288461137b565b9050600073ffffffffffffffffffffffffffffffffffffffff168373ffffffffffffffffffffffffffffffffffffffff1614158015611b9357508273ffffffffffffffffffffffffffffffffffffffff168173ffffffffffffffffffffffffffffffffffffffff1614155b8015611ba65750611ba48184611205565b155b15611be857826040517fa9fbf51f000000000000000000000000000000000000000000000000000000008152600401611bdf91906123f8565b60405180910390fd5b8115611c4a57838573ffffffffffffffffffffffffffffffffffffffff168273ffffffffffffffffffffffffffffffffffffffff167f8c5be1e5ebec7d5bd14f71427d1e84f3dd0314c0f7b2291e5b200ac8c7c3b92560405160405180910390a45b505b836004600085815260200190815260200160002060006101000a81548173ffffffffffffffffffffffffffffffffffffffff021916908373ffffffffffffffffffffffffffffffffffffffff16021790555050505050565b611caf838383611e69565b611d6357600073ffffffffffffffffffffffffffffffffffffffff168373ffffffffffffffffffffffffffffffffffffffff1603611d2457806040517f7e273289000000000000000000000000000000000000000000000000000000008152600401611d1b919061248e565b60405180910390fd5b81816040517f177e802f000000000000000000000000000000000000000000000000000000008152600401611d5a929190612f22565b60405180910390fd5b505050565b611d728383611f2a565b611d7f6000848484611818565b505050565b606060405180602001604052806000815250905090565b606060006001611daa84612023565b01905060008167ffffffffffffffff811115611dc957611dc8612506565b5b6040519080825280601f01601f191660200182016040528015611dfb5781602001600182028036833780820191505090505b509050600082602001820190505b600115611e5e578080600190039150507f3031323334353637383961626364656600000000000000000000000000000000600a86061a8153600a8581611e5257611e51612f4b565b5b04945060008503611e09575b819350505050919050565b60008073ffffffffffffffffffffffffffffffffffffffff168373ffffffffffffffffffffffffffffffffffffffff1614158015611f2157508273ffffffffffffffffffffffffffffffffffffffff168473ffffffffffffffffffffffffffffffffffffffff161480611ee25750611ee18484611205565b5b80611f2057508273ffffffffffffffffffffffffffffffffffffffff16611f0883611403565b73ffffffffffffffffffffffffffffffffffffffff16145b5b90509392505050565b600073ffffffffffffffffffffffffffffffffffffffff168273ffffffffffffffffffffffffffffffffffffffff1603611f9c5760006040517f64a0ae92000000000000000000000000000000000000000000000000000000008152600401611f9391906123f8565b60405180910390fd5b6000611faa8383600061145a565b9050600073ffffffffffffffffffffffffffffffffffffffff168173ffffffffffffffffffffffffffffffffffffffff161461201e5760006040517f73c6ac6e00000000000000000000000000000000000000000000000000000000815260040161201591906123f8565b60405180910390fd5b505050565b600080600090507a184f03e93ff9f4daa797ed6e38ed64bf6a1f0100000000000000008310612081577a184f03e93ff9f4daa797ed6e38ed64bf6a1f010000000000000000838161207757612076612f4b565b5b0492506040810190505b6d04ee2d6d415b85acef810000000083106120be576d04ee2d6d415b85acef810000000083816120b4576120b3612f4b565b5b0492506020810190505b662386f26fc1000083106120ed57662386f26fc1000083816120e3576120e2612f4b565b5b0492506010810190505b6305f5e1008310612116576305f5e100838161210c5761210b612f4b565b5b0492506008810190505b612710831061213b57612710838161213157612130612f4b565b5b0492506004810190505b6064831061215e576064838161215457612153612f4b565b5b0492506002810190505b600a831061216d576001810190505b80915050919050565b508054612182906129c1565b6000825580601f1061219457506121b3565b601f0160209004906000526020600020908101906121b291906121b6565b5b50565b5b808211156121cf5760008160009055506001016121b7565b5090565b6000604051905090565b600080fd5b600080fd5b60007fffffffff0000000000000000000000000000000000000000000000000000000082169050919050565b61221c816121e7565b811461222757600080fd5b50565b60008135905061223981612213565b92915050565b600060208284031215612255576122546121dd565b5b60006122638482850161222a565b91505092915050565b60008115159050919050565b6122818161226c565b82525050565b600060208201905061229c6000830184612278565b92915050565b600081519050919050565b600082825260208201905092915050565b60005b838110156122dc5780820151818401526020810190506122c1565b60008484015250505050565b6000601f19601f8301169050919050565b6000612304826122a2565b61230e81856122ad565b935061231e8185602086016122be565b612327816122e8565b840191505092915050565b6000602082019050818103600083015261234c81846122f9565b905092915050565b6000819050919050565b61236781612354565b811461237257600080fd5b50565b6000813590506123848161235e565b92915050565b6000602082840312156123a05761239f6121dd565b5b60006123ae84828501612375565b91505092915050565b600073ffffffffffffffffffffffffffffffffffffffff82169050919050565b60006123e2826123b7565b9050919050565b6123f2816123d7565b82525050565b600060208201905061240d60008301846123e9565b92915050565b61241c816123d7565b811461242757600080fd5b50565b60008135905061243981612413565b92915050565b60008060408385031215612456576124556121dd565b5b60006124648582860161242a565b925050602061247585828601612375565b9150509250929050565b61248881612354565b82525050565b60006020820190506124a3600083018461247f565b92915050565b6000806000606084860312156124c2576124c16121dd565b5b60006124d08682870161242a565b93505060206124e18682870161242a565b92505060406124f286828701612375565b9150509250925092565b600080fd5b600080fd5b7f4e487b7100000000000000000000000000000000000000000000000000000000600052604160045260246000fd5b61253e826122e8565b810181811067ffffffffffffffff8211171561255d5761255c612506565b5b80604052505050565b60006125706121d3565b905061257c8282612535565b919050565b600067ffffffffffffffff82111561259c5761259b612506565b5b6125a5826122e8565b9050602081019050919050565b82818337600083830152505050565b60006125d46125cf84612581565b612566565b9050828152602081018484840111156125f0576125ef612501565b5b6125fb8482856125b2565b509392505050565b600082601f830112612618576126176124fc565b5b81356126288482602086016125c1565b91505092915050565b60008060008060008060c0878903121561264e5761264d6121dd565b5b600061265c89828a01612375565b965050602061266d89828a01612375565b955050604087013567ffffffffffffffff81111561268e5761268d6121e2565b5b61269a89828a01612603565b94505060606126ab89828a01612375565b93505060806126bc89828a0161242a565b92505060a06126cd89828a01612375565b9150509295509295509295565b600060c0820190506126ef600083018961247f565b6126fc602083018861247f565b818103604083015261270e81876122f9565b905061271d606083018661247f565b61272a608083018561247f565b61273760a08301846123e9565b979650505050505050565b600060208284031215612758576127576121dd565b5b60006127668482850161242a565b91505092915050565b600080600060608486031215612788576127876121dd565b5b600061279686828701612375565b93505060206127a78682870161242a565b92505060406127b88682870161242a565b9150509250925092565b6127cb8161226c565b81146127d657600080fd5b50565b6000813590506127e8816127c2565b92915050565b60008060408385031215612805576128046121dd565b5b60006128138582860161242a565b9250506020612824858286016127d9565b9150509250929050565b600067ffffffffffffffff82111561284957612848612506565b5b612852826122e8565b9050602081019050919050565b600061287261286d8461282e565b612566565b90508281526020810184848401111561288e5761288d612501565b5b6128998482856125b2565b509392505050565b600082601f8301126128b6576128b56124fc565b5b81356128c684826020860161285f565b91505092915050565b600080600080608085870312156128e9576128e86121dd565b5b60006128f78782880161242a565b94505060206129088782880161242a565b935050604061291987828801612375565b925050606085013567ffffffffffffffff81111561293a576129396121e2565b5b612946878288016128a1565b91505092959194509250565b60008060408385031215612969576129686121dd565b5b60006129778582860161242a565b92505060206129888582860161242a565b9150509250929050565b7f4e487b7100000000000000000000000000000000000000000000000000000000600052602260045260246000fd5b600060028204905060018216806129d957607f821691505b6020821081036129ec576129eb612992565b5b50919050565b7f4f6e6c79206272696467652063616e2063616c6c20746869732066756e63746960008201527f6f6e000000000000000000000000000000000000000000000000000000000000602082015250565b6000612a4e6022836122ad565b9150612a59826129f2565b604082019050919050565b60006020820190508181036000830152612a7d81612a41565b9050919050565b6000606082019050612a9960008301866123e9565b612aa6602083018561247f565b612ab360408301846123e9565b949350505050565b7f4e487b7100000000000000000000000000000000000000000000000000000000600052601160045260246000fd5b6000612af582612354565b91507fffffffffffffffffffffffffffffffffffffffffffffffffffffffffffffffff8203612b2757612b26612abb565b5b600182019050919050565b60008190508160005260206000209050919050565b60006020601f8301049050919050565b600082821b905092915050565b600060088302612b947fffffffffffffffffffffffffffffffffffffffffffffffffffffffffffffffff82612b57565b612b9e8683612b57565b95508019841693508086168417925050509392505050565b6000819050919050565b6000612bdb612bd6612bd184612354565b612bb6565b612354565b9050919050565b6000819050919050565b612bf583612bc0565b612c09612c0182612be2565b848454612b64565b825550505050565b600090565b612c1e612c11565b612c29818484612bec565b505050565b5b81811015612c4d57612c42600082612c16565b600181019050612c2f565b5050565b601f821115612c9257612c6381612b32565b612c6c84612b47565b81016020851015612c7b578190505b612c8f612c8785612b47565b830182612c2e565b50505b505050565b600082821c905092915050565b6000612cb560001984600802612c97565b1980831691505092915050565b6000612cce8383612ca4565b9150826002028217905092915050565b612ce7826122a2565b67ffffffffffffffff811115612d0057612cff612506565b5b612d0a82546129c1565b612d15828285612c51565b600060209050601f831160018114612d485760008415612d36578287015190505b612d408582612cc2565b865550612da8565b601f198416612d5686612b32565b60005b82811015612d7e57848901518255600182019150602085019450602081019050612d59565b86831015612d9b5784890151612d97601f891682612ca4565b8355505b6001600288020188555050505b505050505050565b7f4e487b7100000000000000000000000000000000000000000000000000000000600052603260045260246000fd5b600081519050919050565b600082825260208201905092915050565b6000612e0682612ddf565b612e108185612dea565b9350612e208185602086016122be565b612e29816122e8565b840191505092915050565b6000608082019050612e4960008301876123e9565b612e5660208301866123e9565b612e63604083018561247f565b8181036060830152612e758184612dfb565b905095945050505050565b600081519050612e8f81612213565b92915050565b600060208284031215612eab57612eaa6121dd565b5b6000612eb984828501612e80565b91505092915050565b600081905092915050565b6000612ed8826122a2565b612ee28185612ec2565b9350612ef28185602086016122be565b80840191505092915050565b6000612f0a8285612ecd565b9150612f168284612ecd565b91508190509392505050565b6000604082019050612f3760008301856123e9565b612f44602083018461247f565b9392505050565b7f4e487b7100000000000000000000000000000000000000000000000000000000600052601260045260246000fdfea264697066735822122029d01b9c5ddbaa86f761990b0c71707bf06f6d5d10d1bac664ecdd368b4a251364736f6c63430008140033",
  "linkReferences": {},
  "deployedLinkReferences": {}
}