{
  "_format": "hh-sol-artifact-1",
  "contractName": "SourceTokenMinter",
  "sourceName": "contracts/SourceTokenMinter.sol",
  "abi": [
    {
      "inputs": [],
      "stateMutability": "nonpayable",
      "type": "constructor"
    },
    {
      "inputs": [
        {
          "internalType": "address",
          "name": "sender",
          "type": "address"
        },
        {
          "internalType": "uint256",
          "name": "tokenId",
          "type": "uint256"
        },
        {
          "internalType": "address",
          "name": "owner",
          "type": "address"
        }
      ],
      "name": "ERC721IncorrectOwner",
      "type": "error"
    },
    {
      "inputs": [
        {
          "internalType": "address",
          "name": "operator",
          "type": "address"
        },
        {
          "internalType": "uint256",
          "name": "tokenId",
          "type": "uint256"
        }
      ],
      "name": "ERC721InsufficientApproval",
      "type": "error"
    },
    {
      "inputs": [
        {
          "internalType": "address",
          "name": "approver",
          "type": "address"
        }
      ],
      "name": "ERC721InvalidApprover",
      "type": "error"
    },
    {
      "inputs": [
        {
          "internalType": "address",
          "name": "operator",
          "type": "address"
        }
      ],
      "name": "ERC721InvalidOperator",
      "type": "error"
    },
    {
      "inputs": [
        {
          "internalType": "address",
          "name": "owner",
          "type": "address"
        }
      ],
      "name": "ERC721InvalidOwner",
      "type": "error"
    },
    {
      "inputs": [
        {
          "internalType": "address",
          "name": "receiver",
          "type": "address"
        }
      ],
      "name": "ERC721InvalidReceiver",
      "type": "error"
    },
    {
      "inputs": [
        {
          "internalType": "address",
          "name": "sender",
          "type": "address"
        }
      ],
      "name": "ERC721InvalidSender",
      "type": "error"
    },
    {
      "inputs": [
        {
          "internalType": "uint256",
          "name": "tokenId",
          "type": "uint256"
        }
      ],
      "name": "ERC721NonexistentToken",
      "type": "error"
    },
    {
      "anonymous": false,
      "inputs": [
        {
          "indexed": true,
          "internalType": "address",
          "name": "owner",
          "type": "address"
        },
        {
          "indexed": true,
          "internalType": "address",
          "name": "approved",
          "type": "address"
        },
        {
          "indexed": true,
          "internalType": "uint256",
          "name": "tokenId",
          "type": "uint256"
        }
      ],
      "name": "Approval",
      "type": "event"
    },
    {
      "anonymous": false,
      "inputs": [
        {
          "indexed": true,
          "internalType": "address",
          "name": "owner",
          "type": "address"
        },
        {
          "indexed": true,
          "internalType": "address",
          "name": "operator",
          "type": "address"
        },
        {
          "indexed": false,
          "internalType": "bool",
          "name": "approved",
          "type": "bool"
        }
      ],
      "name": "ApprovalForAll",
      "type": "event"
    },
    {
      "anonymous": false,
      "inputs": [
        {
          "indexed": false,
          "internalType": "uint256",
          "name": "policyNumber",
          "type": "uint256"
        }
      ],
      "name": "PolicyCreated",
      "type": "event"
    },
    {
      "anonymous": false,
      "inputs": [
        {
          "indexed": true,
          "internalType": "address",
          "name": "from",
          "type": "address"
        },
        {
          "indexed": true,
          "internalType": "address",
          "name": "to",
          "type": "address"
        },
        {
          "indexed": true,
          "internalType": "uint256",
          "name": "tokenId",
          "type": "uint256"
        }
      ],
      "name": "Transfer",
      "type": "event"
    },
    {
      "inputs": [
        {
          "internalType": "address",
          "name": "to",
          "type": "address"
        },
        {
          "internalType": "uint256",
          "name": "tokenId",
          "type": "uint256"
        }
      ],
      "name": "approve",
      "outputs": [],
      "stateMutability": "nonpayable",
      "type": "function"
    },
    {
      "inputs": [
        {
          "internalType": "address",
          "name": "owner",
          "type": "address"
        }
      ],
      "name": "balanceOf",
      "outputs": [
        {
          "internalType": "uint256",
          "name": "",
          "type": "uint256"
        }
      ],
      "stateMutability": "view",
      "type": "function"
    },
    {
      "inputs": [
        {
          "internalType": "uint256",
          "name": "tokenId",
          "type": "uint256"
        }
      ],
      "name": "burn",
      "outputs": [],
      "stateMutability": "nonpayable",
      "type": "function"
    },
    {
      "inputs": [
        {
          "internalType": "uint256",
          "name": "_policyNumber",
          "type": "uint256"
        },
        {
          "internalType": "uint256",
          "name": "_startDate",
          "type": "uint256"
        },
        {
          "internalType": "uint256",
          "name": "_maturityDate",
          "type": "uint256"
        },
        {
          "internalType": "string",
          "name": "_name",
          "type": "string"
        },
        {
          "internalType": "uint256",
          "name": "_sumAssured",
          "type": "uint256"
        }
      ],
      "name": "createNewPolicy",
      "outputs": [],
      "stateMutability": "nonpayable",
      "type": "function"
    },
    {
      "inputs": [
        {
          "internalType": "uint256",
          "name": "tokenId",
          "type": "uint256"
        }
      ],
      "name": "getApproved",
      "outputs": [
        {
          "internalType": "address",
          "name": "",
          "type": "address"
        }
      ],
      "stateMutability": "view",
      "type": "function"
    },
    {
      "inputs": [
        {
          "internalType": "address",
          "name": "",
          "type": "address"
        },
        {
          "internalType": "uint256",
          "name": "",
          "type": "uint256"
        }
      ],
      "name": "insuranceToOwner",
      "outputs": [
        {
          "internalType": "uint256",
          "name": "policyNumber",
          "type": "uint256"
        },
        {
          "internalType": "uint256",
          "name": "startDate",
          "type": "uint256"
        },
        {
          "internalType": "uint256",
          "name": "maturityDate",
          "type": "uint256"
        },
        {
          "internalType": "string",
          "name": "name",
          "type": "string"
        },
        {
          "internalType": "uint256",
          "name": "sumAssured",
          "type": "uint256"
        }
      ],
      "stateMutability": "view",
      "type": "function"
    },
    {
      "inputs": [
        {
          "internalType": "uint256",
          "name": "",
          "type": "uint256"
        }
      ],
      "name": "insurances",
      "outputs": [
        {
          "internalType": "uint256",
          "name": "policyNumber",
          "type": "uint256"
        },
        {
          "internalType": "uint256",
          "name": "startDate",
          "type": "uint256"
        },
        {
          "internalType": "uint256",
          "name": "maturityDate",
          "type": "uint256"
        },
        {
          "internalType": "string",
          "name": "name",
          "type": "string"
        },
        {
          "internalType": "uint256",
          "name": "sumAssured",
          "type": "uint256"
        }
      ],
      "stateMutability": "view",
      "type": "function"
    },
    {
      "inputs": [
        {
          "internalType": "address",
          "name": "owner",
          "type": "address"
        },
        {
          "internalType": "address",
          "name": "operator",
          "type": "address"
        }
      ],
      "name": "isApprovedForAll",
      "outputs": [
        {
          "internalType": "bool",
          "name": "",
          "type": "bool"
        }
      ],
      "stateMutability": "view",
      "type": "function"
    },
    {
      "inputs": [],
      "name": "name",
      "outputs": [
        {
          "internalType": "string",
          "name": "",
          "type": "string"
        }
      ],
      "stateMutability": "view",
      "type": "function"
    },
    {
      "inputs": [
        {
          "internalType": "uint256",
          "name": "tokenId",
          "type": "uint256"
        }
      ],
      "name": "ownerOf",
      "outputs": [
        {
          "internalType": "address",
          "name": "",
          "type": "address"
        }
      ],
      "stateMutability": "view",
      "type": "function"
    },
    {
      "inputs": [
        {
          "internalType": "address",
          "name": "from",
          "type": "address"
        },
        {
          "internalType": "address",
          "name": "to",
          "type": "address"
        },
        {
          "internalType": "uint256",
          "name": "tokenId",
          "type": "uint256"
        }
      ],
      "name": "safeTransferFrom",
      "outputs": [],
      "stateMutability": "nonpayable",
      "type": "function"
    },
    {
      "inputs": [
        {
          "internalType": "address",
          "name": "from",
          "type": "address"
        },
        {
          "internalType": "address",
          "name": "to",
          "type": "address"
        },
        {
          "internalType": "uint256",
          "name": "tokenId",
          "type": "uint256"
        },
        {
          "internalType": "bytes",
          "name": "data",
          "type": "bytes"
        }
      ],
      "name": "safeTransferFrom",
      "outputs": [],
      "stateMutability": "nonpayable",
      "type": "function"
    },
    {
      "inputs": [
        {
          "internalType": "address",
          "name": "operator",
          "type": "address"
        },
        {
          "internalType": "bool",
          "name": "approved",
          "type": "bool"
        }
      ],
      "name": "setApprovalForAll",
      "outputs": [],
      "stateMutability": "nonpayable",
      "type": "function"
    },
    {
      "inputs": [
        {
          "internalType": "bytes4",
          "name": "interfaceId",
          "type": "bytes4"
        }
      ],
      "name": "supportsInterface",
      "outputs": [
        {
          "internalType": "bool",
          "name": "",
          "type": "bool"
        }
      ],
      "stateMutability": "view",
      "type": "function"
    },
    {
      "inputs": [],
      "name": "symbol",
      "outputs": [
        {
          "internalType": "string",
          "name": "",
          "type": "string"
        }
      ],
      "stateMutability": "view",
      "type": "function"
    },
    {
      "inputs": [
        {
          "internalType": "uint256",
          "name": "tokenId",
          "type": "uint256"
        }
      ],
      "name": "tokenURI",
      "outputs": [
        {
          "internalType": "string",
          "name": "",
          "type": "string"
        }
      ],
      "stateMutability": "view",
      "type": "function"
    },
    {
      "inputs": [
        {
          "internalType": "address",
          "name": "from",
          "type": "address"
        },
        {
          "internalType": "address",
          "name": "to",
          "type": "address"
        },
        {
          "internalType": "uint256",
          "name": "tokenId",
          "type": "uint256"
        }
      ],
      "name": "transferFrom",
      "outputs": [],
      "stateMutability": "nonpayable",
      "type": "function"
    },
    {
      "inputs": [
        {
          "internalType": "uint256",
          "name": "_tokenId",
          "type": "uint256"
        }
      ],
      "name": "viewPolicy",
      "outputs": [
        {
          "internalType": "uint256",
          "name": "",
          "type": "uint256"
        },
        {
          "internalType": "uint256",
          "name": "",
          "type": "uint256"
        },
        {
          "internalType": "uint256",
          "name": "",
          "type": "uint256"
        },
        {
          "internalType": "string",
          "name": "",
          "type": "string"
        },
        {
          "internalType": "uint256",
          "name": "",
          "type": "uint256"
        }
      ],
      "stateMutability": "view",
      "type": "function"
    }
  ],
  "bytecode": "0x608060405260006006553480156200001657600080fd5b506040518060400160405280600a81526020017f57496e737572616e6365000000000000000000000000000000000000000000008152506040518060400160405280600381526020017f57494e0000000000000000000000000000000000000000000000000000000000815250816000908162000094919062000329565b508060019081620000a6919062000329565b50505062000410565b600081519050919050565b7f4e487b7100000000000000000000000000000000000000000000000000000000600052604160045260246000fd5b7f4e487b7100000000000000000000000000000000000000000000000000000000600052602260045260246000fd5b600060028204905060018216806200013157607f821691505b602082108103620001475762000146620000e9565b5b50919050565b60008190508160005260206000209050919050565b60006020601f8301049050919050565b600082821b905092915050565b600060088302620001b17fffffffffffffffffffffffffffffffffffffffffffffffffffffffffffffffff8262000172565b620001bd868362000172565b95508019841693508086168417925050509392505050565b6000819050919050565b6000819050919050565b60006200020a62000204620001fe84620001d5565b620001df565b620001d5565b9050919050565b6000819050919050565b6200022683620001e9565b6200023e620002358262000211565b8484546200017f565b825550505050565b600090565b6200025562000246565b620002628184846200021b565b505050565b5b818110156200028a576200027e6000826200024b565b60018101905062000268565b5050565b601f821115620002d957620002a3816200014d565b620002ae8462000162565b81016020851015620002be578190505b620002d6620002cd8562000162565b83018262000267565b50505b505050565b600082821c905092915050565b6000620002fe60001984600802620002de565b1980831691505092915050565b6000620003198383620002eb565b9150826002028217905092915050565b6200033482620000af565b67ffffffffffffffff81111562000350576200034f620000ba565b5b6200035c825462000118565b620003698282856200028e565b600060209050601f831160018114620003a157600084156200038c578287015190505b6200039885826200030b565b86555062000408565b601f198416620003b1866200014d565b60005b82811015620003db57848901518255600182019150602085019450602081019050620003b4565b86831015620003fb5784890151620003f7601f891682620002eb565b8355505b6001600288020188555050505b505050505050565b6127c880620004206000396000f3fe608060405234801561001057600080fd5b50600436106101165760003560e01c806359fb49f9116100a257806397e689111161007157806397e689111461030b578063a22cb4651461033f578063b88d4fde1461035b578063c87b56dd14610377578063e985e9c5146103a757610116565b806359fb49f9146102595780636352211e1461028d57806370a08231146102bd57806395d89b41146102ed57610116565b806323b872dd116100e957806323b872dd146101b557806342842e0e146101d157806342966c68146101ed57806343dc5ee7146102095780634431cfc91461022557610116565b806301ffc9a71461011b57806306fdde031461014b578063081812fc14610169578063095ea7b314610199575b600080fd5b61013560048036038101906101309190611b8b565b6103d7565b6040516101429190611bd3565b60405180910390f35b6101536103e9565b6040516101609190611c7e565b60405180910390f35b610183600480360381019061017e9190611cd6565b61047b565b6040516101909190611d44565b60405180910390f35b6101b360048036038101906101ae9190611d8b565b610497565b005b6101cf60048036038101906101ca9190611dcb565b6104ad565b005b6101eb60048036038101906101e69190611dcb565b6105af565b005b61020760048036038101906102029190611cd6565b6105cf565b005b610223600480360381019061021e9190611f53565b6105e6565b005b61023f600480360381019061023a9190611d8b565b610778565b604051610250959493929190611ff9565b60405180910390f35b610273600480360381019061026e9190611cd6565b610853565b604051610284959493929190611ff9565b60405180910390f35b6102a760048036038101906102a29190611cd6565b610911565b6040516102b49190611d44565b60405180910390f35b6102d760048036038101906102d29190612053565b610923565b6040516102e49190612080565b60405180910390f35b6102f56109dd565b6040516103029190611c7e565b60405180910390f35b61032560048036038101906103209190611cd6565b610a6f565b604051610336959493929190611ff9565b60405180910390f35b610359600480360381019061035491906120c7565b610b80565b005b610375600480360381019061037091906121a8565b610b96565b005b610391600480360381019061038c9190611cd6565b610bb3565b60405161039e9190611c7e565b60405180910390f35b6103c160048036038101906103bc919061222b565b610bc5565b6040516103ce9190611bd3565b60405180910390f35b60006103e282610c59565b9050919050565b6060600080546103f89061229a565b80601f01602080910402602001604051908101604052809291908181526020018280546104249061229a565b80156104715780601f1061044657610100808354040283529160200191610471565b820191906000526020600020905b81548152906001019060200180831161045457829003601f168201915b5050505050905090565b600061048682610d3b565b5061049082610dc3565b9050919050565b6104a982826104a4610e00565b610e08565b5050565b600073ffffffffffffffffffffffffffffffffffffffff168273ffffffffffffffffffffffffffffffffffffffff160361051f5760006040517f64a0ae920000000000000000000000000000000000000000000000000000000081526004016105169190611d44565b60405180910390fd5b6000610533838361052e610e00565b610e1a565b90508373ffffffffffffffffffffffffffffffffffffffff168173ffffffffffffffffffffffffffffffffffffffff16146105a9578382826040517f64283d7b0000000000000000000000000000000000000000000000000000000081526004016105a0939291906122cb565b60405180910390fd5b50505050565b6105ca83838360405180602001604052806000815250610b96565b505050565b6105e26000826105dd610e00565b610e1a565b5050565b60006040518060a00160405280878152602001868152602001858152602001848152602001838152509050600060065490506006600081548092919061062b90612331565b9190505550816007600083815260200190815260200160002060008201518160000155602082015181600101556040820151816002015560608201518160030190816106779190612525565b5060808201518160040155905050600860003373ffffffffffffffffffffffffffffffffffffffff1673ffffffffffffffffffffffffffffffffffffffff16815260200190815260200160002082908060018154018082558091505060019003906000526020600020906005020160009091909190915060008201518160000155602082015181600101556040820151816002015560608201518160030190816107219190612525565b506080820151816004015550506107383382611034565b7fde5ef345cecbaaffdfbe2454b7947aa14037bac2f45e4fc98976f8bffea38623816040516107679190612080565b60405180910390a150505050505050565b6008602052816000526040600020818154811061079457600080fd5b9060005260206000209060050201600091509150508060000154908060010154908060020154908060030180546107ca9061229a565b80601f01602080910402602001604051908101604052809291908181526020018280546107f69061229a565b80156108435780601f1061081857610100808354040283529160200191610843565b820191906000526020600020905b81548152906001019060200180831161082657829003601f168201915b5050505050908060040154905085565b60076020528060005260406000206000915090508060000154908060010154908060020154908060030180546108889061229a565b80601f01602080910402602001604051908101604052809291908181526020018280546108b49061229a565b80156109015780601f106108d657610100808354040283529160200191610901565b820191906000526020600020905b8154815290600101906020018083116108e457829003601f168201915b5050505050908060040154905085565b600061091c82610d3b565b9050919050565b60008073ffffffffffffffffffffffffffffffffffffffff168273ffffffffffffffffffffffffffffffffffffffff16036109965760006040517f89c62b6400000000000000000000000000000000000000000000000000000000815260040161098d9190611d44565b60405180910390fd5b600360008373ffffffffffffffffffffffffffffffffffffffff1673ffffffffffffffffffffffffffffffffffffffff168152602001908152602001600020549050919050565b6060600180546109ec9061229a565b80601f0160208091040260200160405190810160405280929190818152602001828054610a189061229a565b8015610a655780601f10610a3a57610100808354040283529160200191610a65565b820191906000526020600020905b815481529060010190602001808311610a4857829003601f168201915b5050505050905090565b60008060006060600080600760008881526020019081526020016000206040518060a0016040529081600082015481526020016001820154815260200160028201548152602001600382018054610ac59061229a565b80601f0160208091040260200160405190810160405280929190818152602001828054610af19061229a565b8015610b3e5780601f10610b1357610100808354040283529160200191610b3e565b820191906000526020600020905b815481529060010190602001808311610b2157829003601f168201915b50505050508152602001600482015481525050905080600001518160200151826040015183606001518460800151955095509550955095505091939590929450565b610b92610b8b610e00565b8383611052565b5050565b610ba18484846104ad565b610bad848484846111c1565b50505050565b6060610bbe82611378565b9050919050565b6000600560008473ffffffffffffffffffffffffffffffffffffffff1673ffffffffffffffffffffffffffffffffffffffff16815260200190815260200160002060008373ffffffffffffffffffffffffffffffffffffffff1673ffffffffffffffffffffffffffffffffffffffff16815260200190815260200160002060009054906101000a900460ff16905092915050565b60007f80ac58cd000000000000000000000000000000000000000000000000000000007bffffffffffffffffffffffffffffffffffffffffffffffffffffffff1916827bffffffffffffffffffffffffffffffffffffffffffffffffffffffff19161480610d2457507f5b5e139f000000000000000000000000000000000000000000000000000000007bffffffffffffffffffffffffffffffffffffffffffffffffffffffff1916827bffffffffffffffffffffffffffffffffffffffffffffffffffffffff1916145b80610d345750610d33826113e1565b5b9050919050565b600080610d478361144b565b9050600073ffffffffffffffffffffffffffffffffffffffff168173ffffffffffffffffffffffffffffffffffffffff1603610dba57826040517f7e273289000000000000000000000000000000000000000000000000000000008152600401610db19190612080565b60405180910390fd5b80915050919050565b60006004600083815260200190815260200160002060009054906101000a900473ffffffffffffffffffffffffffffffffffffffff169050919050565b600033905090565b610e158383836001611488565b505050565b600080610e268461144b565b9050600073ffffffffffffffffffffffffffffffffffffffff168373ffffffffffffffffffffffffffffffffffffffff1614610e6857610e6781848661164d565b5b600073ffffffffffffffffffffffffffffffffffffffff168173ffffffffffffffffffffffffffffffffffffffff1614610ef957610eaa600085600080611488565b6001600360008373ffffffffffffffffffffffffffffffffffffffff1673ffffffffffffffffffffffffffffffffffffffff168152602001908152602001600020600082825403925050819055505b600073ffffffffffffffffffffffffffffffffffffffff168573ffffffffffffffffffffffffffffffffffffffff1614610f7c576001600360008773ffffffffffffffffffffffffffffffffffffffff1673ffffffffffffffffffffffffffffffffffffffff168152602001908152602001600020600082825401925050819055505b846002600086815260200190815260200160002060006101000a81548173ffffffffffffffffffffffffffffffffffffffff021916908373ffffffffffffffffffffffffffffffffffffffff160217905550838573ffffffffffffffffffffffffffffffffffffffff168273ffffffffffffffffffffffffffffffffffffffff167fddf252ad1be2c89b69c2b068fc378daa952ba7f163c4a11628f55a4df523b3ef60405160405180910390a4809150509392505050565b61104e828260405180602001604052806000815250611711565b5050565b600073ffffffffffffffffffffffffffffffffffffffff168273ffffffffffffffffffffffffffffffffffffffff16036110c357816040517f5b08ba180000000000000000000000000000000000000000000000000000000081526004016110ba9190611d44565b60405180910390fd5b80600560008573ffffffffffffffffffffffffffffffffffffffff1673ffffffffffffffffffffffffffffffffffffffff16815260200190815260200160002060008473ffffffffffffffffffffffffffffffffffffffff1673ffffffffffffffffffffffffffffffffffffffff16815260200190815260200160002060006101000a81548160ff0219169083151502179055508173ffffffffffffffffffffffffffffffffffffffff168373ffffffffffffffffffffffffffffffffffffffff167f17307eab39ab6107e8899845ad3d59bd9653f200f220920489ca2b5937696c31836040516111b49190611bd3565b60405180910390a3505050565b60008373ffffffffffffffffffffffffffffffffffffffff163b1115611372578273ffffffffffffffffffffffffffffffffffffffff1663150b7a02611205610e00565b8685856040518563ffffffff1660e01b8152600401611227949392919061264c565b6020604051808303816000875af192505050801561126357506040513d601f19601f8201168201806040525081019061126091906126ad565b60015b6112e7573d8060008114611293576040519150601f19603f3d011682016040523d82523d6000602084013e611298565b606091505b5060008151036112df57836040517f64a0ae920000000000000000000000000000000000000000000000000000000081526004016112d69190611d44565b60405180910390fd5b805181602001fd5b63150b7a0260e01b7bffffffffffffffffffffffffffffffffffffffffffffffffffffffff1916817bffffffffffffffffffffffffffffffffffffffffffffffffffffffff19161461137057836040517f64a0ae920000000000000000000000000000000000000000000000000000000081526004016113679190611d44565b60405180910390fd5b505b50505050565b606061138382610d3b565b50600061138e61172d565b905060008151116113ae57604051806020016040528060008152506113d9565b806113b884611744565b6040516020016113c9929190612716565b6040516020818303038152906040525b915050919050565b60007f01ffc9a7000000000000000000000000000000000000000000000000000000007bffffffffffffffffffffffffffffffffffffffffffffffffffffffff1916827bffffffffffffffffffffffffffffffffffffffffffffffffffffffff1916149050919050565b60006002600083815260200190815260200160002060009054906101000a900473ffffffffffffffffffffffffffffffffffffffff169050919050565b80806114c15750600073ffffffffffffffffffffffffffffffffffffffff168273ffffffffffffffffffffffffffffffffffffffff1614155b156115f55760006114d184610d3b565b9050600073ffffffffffffffffffffffffffffffffffffffff168373ffffffffffffffffffffffffffffffffffffffff161415801561153c57508273ffffffffffffffffffffffffffffffffffffffff168173ffffffffffffffffffffffffffffffffffffffff1614155b801561154f575061154d8184610bc5565b155b1561159157826040517fa9fbf51f0000000000000000000000000000000000000000000000000000000081526004016115889190611d44565b60405180910390fd5b81156115f357838573ffffffffffffffffffffffffffffffffffffffff168273ffffffffffffffffffffffffffffffffffffffff167f8c5be1e5ebec7d5bd14f71427d1e84f3dd0314c0f7b2291e5b200ac8c7c3b92560405160405180910390a45b505b836004600085815260200190815260200160002060006101000a81548173ffffffffffffffffffffffffffffffffffffffff021916908373ffffffffffffffffffffffffffffffffffffffff16021790555050505050565b611658838383611812565b61170c57600073ffffffffffffffffffffffffffffffffffffffff168373ffffffffffffffffffffffffffffffffffffffff16036116cd57806040517f7e2732890000000000000000000000000000000000000000000000000000000081526004016116c49190612080565b60405180910390fd5b81816040517f177e802f00000000000000000000000000000000000000000000000000000000815260040161170392919061273a565b60405180910390fd5b505050565b61171b83836118d3565b61172860008484846111c1565b505050565b606060405180602001604052806000815250905090565b606060006001611753846119cc565b01905060008167ffffffffffffffff81111561177257611771611e28565b5b6040519080825280601f01601f1916602001820160405280156117a45781602001600182028036833780820191505090505b509050600082602001820190505b600115611807578080600190039150507f3031323334353637383961626364656600000000000000000000000000000000600a86061a8153600a85816117fb576117fa612763565b5b049450600085036117b2575b819350505050919050565b60008073ffffffffffffffffffffffffffffffffffffffff168373ffffffffffffffffffffffffffffffffffffffff16141580156118ca57508273ffffffffffffffffffffffffffffffffffffffff168473ffffffffffffffffffffffffffffffffffffffff16148061188b575061188a8484610bc5565b5b806118c957508273ffffffffffffffffffffffffffffffffffffffff166118b183610dc3565b73ffffffffffffffffffffffffffffffffffffffff16145b5b90509392505050565b600073ffffffffffffffffffffffffffffffffffffffff168273ffffffffffffffffffffffffffffffffffffffff16036119455760006040517f64a0ae9200000000000000000000000000000000000000000000000000000000815260040161193c9190611d44565b60405180910390fd5b600061195383836000610e1a565b9050600073ffffffffffffffffffffffffffffffffffffffff168173ffffffffffffffffffffffffffffffffffffffff16146119c75760006040517f73c6ac6e0000000000000000000000000000000000000000000000000000000081526004016119be9190611d44565b60405180910390fd5b505050565b600080600090507a184f03e93ff9f4daa797ed6e38ed64bf6a1f0100000000000000008310611a2a577a184f03e93ff9f4daa797ed6e38ed64bf6a1f0100000000000000008381611a2057611a1f612763565b5b0492506040810190505b6d04ee2d6d415b85acef81000000008310611a67576d04ee2d6d415b85acef81000000008381611a5d57611a5c612763565b5b0492506020810190505b662386f26fc100008310611a9657662386f26fc100008381611a8c57611a8b612763565b5b0492506010810190505b6305f5e1008310611abf576305f5e1008381611ab557611ab4612763565b5b0492506008810190505b6127108310611ae4576127108381611ada57611ad9612763565b5b0492506004810190505b60648310611b075760648381611afd57611afc612763565b5b0492506002810190505b600a8310611b16576001810190505b80915050919050565b6000604051905090565b600080fd5b600080fd5b60007fffffffff0000000000000000000000000000000000000000000000000000000082169050919050565b611b6881611b33565b8114611b7357600080fd5b50565b600081359050611b8581611b5f565b92915050565b600060208284031215611ba157611ba0611b29565b5b6000611baf84828501611b76565b91505092915050565b60008115159050919050565b611bcd81611bb8565b82525050565b6000602082019050611be86000830184611bc4565b92915050565b600081519050919050565b600082825260208201905092915050565b60005b83811015611c28578082015181840152602081019050611c0d565b60008484015250505050565b6000601f19601f8301169050919050565b6000611c5082611bee565b611c5a8185611bf9565b9350611c6a818560208601611c0a565b611c7381611c34565b840191505092915050565b60006020820190508181036000830152611c988184611c45565b905092915050565b6000819050919050565b611cb381611ca0565b8114611cbe57600080fd5b50565b600081359050611cd081611caa565b92915050565b600060208284031215611cec57611ceb611b29565b5b6000611cfa84828501611cc1565b91505092915050565b600073ffffffffffffffffffffffffffffffffffffffff82169050919050565b6000611d2e82611d03565b9050919050565b611d3e81611d23565b82525050565b6000602082019050611d596000830184611d35565b92915050565b611d6881611d23565b8114611d7357600080fd5b50565b600081359050611d8581611d5f565b92915050565b60008060408385031215611da257611da1611b29565b5b6000611db085828601611d76565b9250506020611dc185828601611cc1565b9150509250929050565b600080600060608486031215611de457611de3611b29565b5b6000611df286828701611d76565b9350506020611e0386828701611d76565b9250506040611e1486828701611cc1565b9150509250925092565b600080fd5b600080fd5b7f4e487b7100000000000000000000000000000000000000000000000000000000600052604160045260246000fd5b611e6082611c34565b810181811067ffffffffffffffff82111715611e7f57611e7e611e28565b5b80604052505050565b6000611e92611b1f565b9050611e9e8282611e57565b919050565b600067ffffffffffffffff821115611ebe57611ebd611e28565b5b611ec782611c34565b9050602081019050919050565b82818337600083830152505050565b6000611ef6611ef184611ea3565b611e88565b905082815260208101848484011115611f1257611f11611e23565b5b611f1d848285611ed4565b509392505050565b600082601f830112611f3a57611f39611e1e565b5b8135611f4a848260208601611ee3565b91505092915050565b600080600080600060a08688031215611f6f57611f6e611b29565b5b6000611f7d88828901611cc1565b9550506020611f8e88828901611cc1565b9450506040611f9f88828901611cc1565b935050606086013567ffffffffffffffff811115611fc057611fbf611b2e565b5b611fcc88828901611f25565b9250506080611fdd88828901611cc1565b9150509295509295909350565b611ff381611ca0565b82525050565b600060a08201905061200e6000830188611fea565b61201b6020830187611fea565b6120286040830186611fea565b818103606083015261203a8185611c45565b90506120496080830184611fea565b9695505050505050565b60006020828403121561206957612068611b29565b5b600061207784828501611d76565b91505092915050565b60006020820190506120956000830184611fea565b92915050565b6120a481611bb8565b81146120af57600080fd5b50565b6000813590506120c18161209b565b92915050565b600080604083850312156120de576120dd611b29565b5b60006120ec85828601611d76565b92505060206120fd858286016120b2565b9150509250929050565b600067ffffffffffffffff82111561212257612121611e28565b5b61212b82611c34565b9050602081019050919050565b600061214b61214684612107565b611e88565b90508281526020810184848401111561216757612166611e23565b5b612172848285611ed4565b509392505050565b600082601f83011261218f5761218e611e1e565b5b813561219f848260208601612138565b91505092915050565b600080600080608085870312156121c2576121c1611b29565b5b60006121d087828801611d76565b94505060206121e187828801611d76565b93505060406121f287828801611cc1565b925050606085013567ffffffffffffffff81111561221357612212611b2e565b5b61221f8782880161217a565b91505092959194509250565b6000806040838503121561224257612241611b29565b5b600061225085828601611d76565b925050602061226185828601611d76565b9150509250929050565b7f4e487b7100000000000000000000000000000000000000000000000000000000600052602260045260246000fd5b600060028204905060018216806122b257607f821691505b6020821081036122c5576122c461226b565b5b50919050565b60006060820190506122e06000830186611d35565b6122ed6020830185611fea565b6122fa6040830184611d35565b949350505050565b7f4e487b7100000000000000000000000000000000000000000000000000000000600052601160045260246000fd5b600061233c82611ca0565b91507fffffffffffffffffffffffffffffffffffffffffffffffffffffffffffffffff820361236e5761236d612302565b5b600182019050919050565b60008190508160005260206000209050919050565b60006020601f8301049050919050565b600082821b905092915050565b6000600883026123db7fffffffffffffffffffffffffffffffffffffffffffffffffffffffffffffffff8261239e565b6123e5868361239e565b95508019841693508086168417925050509392505050565b6000819050919050565b600061242261241d61241884611ca0565b6123fd565b611ca0565b9050919050565b6000819050919050565b61243c83612407565b61245061244882612429565b8484546123ab565b825550505050565b600090565b612465612458565b612470818484612433565b505050565b5b818110156124945761248960008261245d565b600181019050612476565b5050565b601f8211156124d9576124aa81612379565b6124b38461238e565b810160208510156124c2578190505b6124d66124ce8561238e565b830182612475565b50505b505050565b600082821c905092915050565b60006124fc600019846008026124de565b1980831691505092915050565b600061251583836124eb565b9150826002028217905092915050565b61252e82611bee565b67ffffffffffffffff81111561254757612546611e28565b5b612551825461229a565b61255c828285612498565b600060209050601f83116001811461258f576000841561257d578287015190505b6125878582612509565b8655506125ef565b601f19841661259d86612379565b60005b828110156125c5578489015182556001820191506020850194506020810190506125a0565b868310156125e257848901516125de601f8916826124eb565b8355505b6001600288020188555050505b505050505050565b600081519050919050565b600082825260208201905092915050565b600061261e826125f7565b6126288185612602565b9350612638818560208601611c0a565b61264181611c34565b840191505092915050565b60006080820190506126616000830187611d35565b61266e6020830186611d35565b61267b6040830185611fea565b818103606083015261268d8184612613565b905095945050505050565b6000815190506126a781611b5f565b92915050565b6000602082840312156126c3576126c2611b29565b5b60006126d184828501612698565b91505092915050565b600081905092915050565b60006126f082611bee565b6126fa81856126da565b935061270a818560208601611c0a565b80840191505092915050565b600061272282856126e5565b915061272e82846126e5565b91508190509392505050565b600060408201905061274f6000830185611d35565b61275c6020830184611fea565b9392505050565b7f4e487b7100000000000000000000000000000000000000000000000000000000600052601260045260246000fdfea26469706673582212201938a18ab26ed22811660d2ef831d3360405a372c6f19e35e66671f6fec8efdb64736f6c63430008140033",
  "linkReferences": {},
  "deployedLinkReferences": {}
}