{
  "_format": "hh-sol-artifact-1",
  "contractName": "SourceBridge",
  "sourceName": "contracts/SourceBridge.sol",
  "abi": [
    {
      "inputs": [
        {
          "internalType": "address",
          "name": "tokenAddress",
          "type": "address"
        }
      ],
      "stateMutability": "payable",
      "type": "constructor"
    },
    {
      "anonymous": false,
      "inputs": [
        {
          "indexed": false,
          "internalType": "address",
          "name": "from",
          "type": "address"
        },
        {
          "indexed": false,
          "internalType": "address",
          "name": "to",
          "type": "address"
        },
        {
          "indexed": false,
          "internalType": "uint256",
          "name": "tokenId",
          "type": "uint256"
        },
        {
          "indexed": false,
          "internalType": "uint256",
          "name": "date",
          "type": "uint256"
        },
        {
          "indexed": false,
          "internalType": "bytes32",
          "name": "nonce",
          "type": "bytes32"
        }
      ],
      "name": "Transfer",
      "type": "event"
    },
    {
      "inputs": [
        {
          "internalType": "address",
          "name": "to",
          "type": "address"
        },
        {
          "internalType": "uint256",
          "name": "tokenId",
          "type": "uint256"
        }
      ],
      "name": "bridgeToken",
      "outputs": [],
      "stateMutability": "nonpayable",
      "type": "function"
    },
    {
      "inputs": [
        {
          "internalType": "address",
          "name": "from",
          "type": "address"
        },
        {
          "internalType": "uint256",
          "name": "tokenId",
          "type": "uint256"
        }
      ],
      "name": "generateNonce",
      "outputs": [
        {
          "internalType": "bytes32",
          "name": "",
          "type": "bytes32"
        }
      ],
      "stateMutability": "view",
      "type": "function"
    },
    {
      "inputs": [
        {
          "internalType": "address",
          "name": "",
          "type": "address"
        },
        {
          "internalType": "address",
          "name": "",
          "type": "address"
        },
        {
          "internalType": "uint256",
          "name": "",
          "type": "uint256"
        },
        {
          "internalType": "bytes",
          "name": "",
          "type": "bytes"
        }
      ],
      "name": "onERC721Received",
      "outputs": [
        {
          "internalType": "bytes4",
          "name": "",
          "type": "bytes4"
        }
      ],
      "stateMutability": "nonpayable",
      "type": "function"
    },
    {
      "inputs": [
        {
          "internalType": "bytes32",
          "name": "",
          "type": "bytes32"
        }
      ],
      "name": "processedNonces",
      "outputs": [
        {
          "internalType": "bool",
          "name": "",
          "type": "bool"
        }
      ],
      "stateMutability": "view",
      "type": "function"
    },
    {
      "inputs": [],
      "name": "token",
      "outputs": [
        {
          "internalType": "contract IERC721",
          "name": "",
          "type": "address"
        }
      ],
      "stateMutability": "view",
      "type": "function"
    },
    {
      "inputs": [
        {
          "internalType": "address",
          "name": "to",
          "type": "address"
        },
        {
          "internalType": "uint256",
          "name": "tokenId",
          "type": "uint256"
        }
      ],
      "name": "withdraw",
      "outputs": [],
      "stateMutability": "nonpayable",
      "type": "function"
    }
  ],
  "bytecode": "0x6080604052604051610b3c380380610b3c833981810160405281019061002591906100ce565b806000806101000a81548173ffffffffffffffffffffffffffffffffffffffff021916908373ffffffffffffffffffffffffffffffffffffffff160217905550506100fb565b600080fd5b600073ffffffffffffffffffffffffffffffffffffffff82169050919050565b600061009b82610070565b9050919050565b6100ab81610090565b81146100b657600080fd5b50565b6000815190506100c8816100a2565b92915050565b6000602082840312156100e4576100e361006b565b5b60006100f2848285016100b9565b91505092915050565b610a328061010a6000396000f3fe608060405234801561001057600080fd5b50600436106100625760003560e01c806309da1fb014610067578063150b7a0214610097578063404a4edb146100c7578063e7904cee146100f7578063f3fef3a314610113578063fc0c546a1461012f575b600080fd5b610081600480360381019061007c9190610484565b61014d565b60405161008e91906104dd565b60405180910390f35b6100b160048036038101906100ac919061063e565b610184565b6040516100be91906106fc565b60405180910390f35b6100e160048036038101906100dc9190610743565b610198565b6040516100ee919061078b565b60405180910390f35b610111600480360381019061010c9190610484565b6101b8565b005b61012d60048036038101906101289190610484565b610325565b005b6101376103b8565b6040516101449190610805565b60405180910390f35b6000448383426040516020016101669493929190610889565b60405160208183030381529060405280519060200120905092915050565b600063150b7a0260e01b9050949350505050565b60016020528060005260406000206000915054906101000a900460ff1681565b60006101c4338361014d565b90506001600082815260200190815260200160002060009054906101000a900460ff1615610227576040517f08c379a000000000000000000000000000000000000000000000000000000000815260040161021e90610934565b60405180910390fd5b600180600083815260200190815260200160002060006101000a81548160ff02191690831515021790555060008054906101000a900473ffffffffffffffffffffffffffffffffffffffff1673ffffffffffffffffffffffffffffffffffffffff166342842e0e3330856040518463ffffffff1660e01b81526004016102af93929190610972565b600060405180830381600087803b1580156102c957600080fd5b505af11580156102dd573d6000803e3d6000fd5b505050507fa8e9c8a0f3291c9fb294e2d24d1ef576cb62cca1b28c6a3d89732353be3dddc933848442856040516103189594939291906109a9565b60405180910390a1505050565b60008054906101000a900473ffffffffffffffffffffffffffffffffffffffff1673ffffffffffffffffffffffffffffffffffffffff166342842e0e3084846040518463ffffffff1660e01b815260040161038293929190610972565b600060405180830381600087803b15801561039c57600080fd5b505af11580156103b0573d6000803e3d6000fd5b505050505050565b60008054906101000a900473ffffffffffffffffffffffffffffffffffffffff1681565b6000604051905090565b600080fd5b600080fd5b600073ffffffffffffffffffffffffffffffffffffffff82169050919050565b600061041b826103f0565b9050919050565b61042b81610410565b811461043657600080fd5b50565b60008135905061044881610422565b92915050565b6000819050919050565b6104618161044e565b811461046c57600080fd5b50565b60008135905061047e81610458565b92915050565b6000806040838503121561049b5761049a6103e6565b5b60006104a985828601610439565b92505060206104ba8582860161046f565b9150509250929050565b6000819050919050565b6104d7816104c4565b82525050565b60006020820190506104f260008301846104ce565b92915050565b600080fd5b600080fd5b6000601f19601f8301169050919050565b7f4e487b7100000000000000000000000000000000000000000000000000000000600052604160045260246000fd5b61054b82610502565b810181811067ffffffffffffffff8211171561056a57610569610513565b5b80604052505050565b600061057d6103dc565b90506105898282610542565b919050565b600067ffffffffffffffff8211156105a9576105a8610513565b5b6105b282610502565b9050602081019050919050565b82818337600083830152505050565b60006105e16105dc8461058e565b610573565b9050828152602081018484840111156105fd576105fc6104fd565b5b6106088482856105bf565b509392505050565b600082601f830112610625576106246104f8565b5b81356106358482602086016105ce565b91505092915050565b60008060008060808587031215610658576106576103e6565b5b600061066687828801610439565b945050602061067787828801610439565b93505060406106888782880161046f565b925050606085013567ffffffffffffffff8111156106a9576106a86103eb565b5b6106b587828801610610565b91505092959194509250565b60007fffffffff0000000000000000000000000000000000000000000000000000000082169050919050565b6106f6816106c1565b82525050565b600060208201905061071160008301846106ed565b92915050565b610720816104c4565b811461072b57600080fd5b50565b60008135905061073d81610717565b92915050565b600060208284031215610759576107586103e6565b5b60006107678482850161072e565b91505092915050565b60008115159050919050565b61078581610770565b82525050565b60006020820190506107a0600083018461077c565b92915050565b6000819050919050565b60006107cb6107c66107c1846103f0565b6107a6565b6103f0565b9050919050565b60006107dd826107b0565b9050919050565b60006107ef826107d2565b9050919050565b6107ff816107e4565b82525050565b600060208201905061081a60008301846107f6565b92915050565b6000819050919050565b61083b6108368261044e565b610820565b82525050565b60008160601b9050919050565b600061085982610841565b9050919050565b600061086b8261084e565b9050919050565b61088361087e82610410565b610860565b82525050565b6000610895828761082a565b6020820191506108a58286610872565b6014820191506108b5828561082a565b6020820191506108c5828461082a565b60208201915081905095945050505050565b600082825260208201905092915050565b7f7472616e7366657220616c72656164792070726f636573736564000000000000600082015250565b600061091e601a836108d7565b9150610929826108e8565b602082019050919050565b6000602082019050818103600083015261094d81610911565b9050919050565b61095d81610410565b82525050565b61096c8161044e565b82525050565b60006060820190506109876000830186610954565b6109946020830185610954565b6109a16040830184610963565b949350505050565b600060a0820190506109be6000830188610954565b6109cb6020830187610954565b6109d86040830186610963565b6109e56060830185610963565b6109f260808301846104ce565b969550505050505056fea2646970667358221220df83c2b0a75ebe9f24dafe145951a7a4d6f7c2709eac9258887c5c17a7935e9664736f6c63430008140033",
  "linkReferences": {},
  "deployedLinkReferences": {}
}