{
  "_format": "hh-sol-artifact-1",
  "contractName": "SourceTokenMinter",
  "sourceName": "contracts/SourceTokenMinter.sol",
  "abi": [
    {
      "inputs": [],
      "stateMutability": "nonpayable",
      "type": "constructor"
    },
    {
      "inputs": [
        {
          "internalType": "address",
          "name": "sender",
          "type": "address"
        },
        {
          "internalType": "uint256",
          "name": "tokenId",
          "type": "uint256"
        },
        {
          "internalType": "address",
          "name": "owner",
          "type": "address"
        }
      ],
      "name": "ERC721IncorrectOwner",
      "type": "error"
    },
    {
      "inputs": [
        {
          "internalType": "address",
          "name": "operator",
          "type": "address"
        },
        {
          "internalType": "uint256",
          "name": "tokenId",
          "type": "uint256"
        }
      ],
      "name": "ERC721InsufficientApproval",
      "type": "error"
    },
    {
      "inputs": [
        {
          "internalType": "address",
          "name": "approver",
          "type": "address"
        }
      ],
      "name": "ERC721InvalidApprover",
      "type": "error"
    },
    {
      "inputs": [
        {
          "internalType": "address",
          "name": "operator",
          "type": "address"
        }
      ],
      "name": "ERC721InvalidOperator",
      "type": "error"
    },
    {
      "inputs": [
        {
          "internalType": "address",
          "name": "owner",
          "type": "address"
        }
      ],
      "name": "ERC721InvalidOwner",
      "type": "error"
    },
    {
      "inputs": [
        {
          "internalType": "address",
          "name": "receiver",
          "type": "address"
        }
      ],
      "name": "ERC721InvalidReceiver",
      "type": "error"
    },
    {
      "inputs": [
        {
          "internalType": "address",
          "name": "sender",
          "type": "address"
        }
      ],
      "name": "ERC721InvalidSender",
      "type": "error"
    },
    {
      "inputs": [
        {
          "internalType": "uint256",
          "name": "tokenId",
          "type": "uint256"
        }
      ],
      "name": "ERC721NonexistentToken",
      "type": "error"
    },
    {
      "anonymous": false,
      "inputs": [
        {
          "indexed": true,
          "internalType": "address",
          "name": "owner",
          "type": "address"
        },
        {
          "indexed": true,
          "internalType": "address",
          "name": "approved",
          "type": "address"
        },
        {
          "indexed": true,
          "internalType": "uint256",
          "name": "tokenId",
          "type": "uint256"
        }
      ],
      "name": "Approval",
      "type": "event"
    },
    {
      "anonymous": false,
      "inputs": [
        {
          "indexed": true,
          "internalType": "address",
          "name": "owner",
          "type": "address"
        },
        {
          "indexed": true,
          "internalType": "address",
          "name": "operator",
          "type": "address"
        },
        {
          "indexed": false,
          "internalType": "bool",
          "name": "approved",
          "type": "bool"
        }
      ],
      "name": "ApprovalForAll",
      "type": "event"
    },
    {
      "anonymous": false,
      "inputs": [
        {
          "indexed": true,
          "internalType": "address",
          "name": "from",
          "type": "address"
        },
        {
          "indexed": true,
          "internalType": "address",
          "name": "to",
          "type": "address"
        },
        {
          "indexed": true,
          "internalType": "uint256",
          "name": "tokenId",
          "type": "uint256"
        }
      ],
      "name": "Transfer",
      "type": "event"
    },
    {
      "inputs": [
        {
          "internalType": "address",
          "name": "to",
          "type": "address"
        },
        {
          "internalType": "uint256",
          "name": "tokenId",
          "type": "uint256"
        }
      ],
      "name": "approve",
      "outputs": [],
      "stateMutability": "nonpayable",
      "type": "function"
    },
    {
      "inputs": [
        {
          "internalType": "address",
          "name": "owner",
          "type": "address"
        }
      ],
      "name": "balanceOf",
      "outputs": [
        {
          "internalType": "uint256",
          "name": "",
          "type": "uint256"
        }
      ],
      "stateMutability": "view",
      "type": "function"
    },
    {
      "inputs": [
        {
          "internalType": "uint256",
          "name": "tokenId",
          "type": "uint256"
        }
      ],
      "name": "burn",
      "outputs": [],
      "stateMutability": "nonpayable",
      "type": "function"
    },
    {
      "inputs": [
        {
          "internalType": "uint256",
          "name": "_policyNumber",
          "type": "uint256"
        },
        {
          "internalType": "uint256",
          "name": "_startDate",
          "type": "uint256"
        },
        {
          "internalType": "uint256",
          "name": "_maturityDate",
          "type": "uint256"
        },
        {
          "internalType": "string",
          "name": "_name",
          "type": "string"
        },
        {
          "internalType": "uint256",
          "name": "_sumAssured",
          "type": "uint256"
        }
      ],
      "name": "createNewPolicy",
      "outputs": [
        {
          "internalType": "uint256",
          "name": "",
          "type": "uint256"
        }
      ],
      "stateMutability": "nonpayable",
      "type": "function"
    },
    {
      "inputs": [
        {
          "internalType": "uint256",
          "name": "tokenId",
          "type": "uint256"
        }
      ],
      "name": "getApproved",
      "outputs": [
        {
          "internalType": "address",
          "name": "",
          "type": "address"
        }
      ],
      "stateMutability": "view",
      "type": "function"
    },
    {
      "inputs": [
        {
          "internalType": "address",
          "name": "",
          "type": "address"
        },
        {
          "internalType": "uint256",
          "name": "",
          "type": "uint256"
        }
      ],
      "name": "insuranceToOwner",
      "outputs": [
        {
          "internalType": "uint256",
          "name": "policyNumber",
          "type": "uint256"
        },
        {
          "internalType": "uint256",
          "name": "startDate",
          "type": "uint256"
        },
        {
          "internalType": "uint256",
          "name": "maturityDate",
          "type": "uint256"
        },
        {
          "internalType": "string",
          "name": "name",
          "type": "string"
        },
        {
          "internalType": "uint256",
          "name": "sumAssured",
          "type": "uint256"
        }
      ],
      "stateMutability": "view",
      "type": "function"
    },
    {
      "inputs": [
        {
          "internalType": "uint256",
          "name": "",
          "type": "uint256"
        }
      ],
      "name": "insurances",
      "outputs": [
        {
          "internalType": "uint256",
          "name": "policyNumber",
          "type": "uint256"
        },
        {
          "internalType": "uint256",
          "name": "startDate",
          "type": "uint256"
        },
        {
          "internalType": "uint256",
          "name": "maturityDate",
          "type": "uint256"
        },
        {
          "internalType": "string",
          "name": "name",
          "type": "string"
        },
        {
          "internalType": "uint256",
          "name": "sumAssured",
          "type": "uint256"
        }
      ],
      "stateMutability": "view",
      "type": "function"
    },
    {
      "inputs": [
        {
          "internalType": "address",
          "name": "owner",
          "type": "address"
        },
        {
          "internalType": "address",
          "name": "operator",
          "type": "address"
        }
      ],
      "name": "isApprovedForAll",
      "outputs": [
        {
          "internalType": "bool",
          "name": "",
          "type": "bool"
        }
      ],
      "stateMutability": "view",
      "type": "function"
    },
    {
      "inputs": [],
      "name": "name",
      "outputs": [
        {
          "internalType": "string",
          "name": "",
          "type": "string"
        }
      ],
      "stateMutability": "view",
      "type": "function"
    },
    {
      "inputs": [
        {
          "internalType": "uint256",
          "name": "tokenId",
          "type": "uint256"
        }
      ],
      "name": "ownerOf",
      "outputs": [
        {
          "internalType": "address",
          "name": "",
          "type": "address"
        }
      ],
      "stateMutability": "view",
      "type": "function"
    },
    {
      "inputs": [
        {
          "internalType": "address",
          "name": "from",
          "type": "address"
        },
        {
          "internalType": "address",
          "name": "to",
          "type": "address"
        },
        {
          "internalType": "uint256",
          "name": "tokenId",
          "type": "uint256"
        }
      ],
      "name": "safeTransferFrom",
      "outputs": [],
      "stateMutability": "nonpayable",
      "type": "function"
    },
    {
      "inputs": [
        {
          "internalType": "address",
          "name": "from",
          "type": "address"
        },
        {
          "internalType": "address",
          "name": "to",
          "type": "address"
        },
        {
          "internalType": "uint256",
          "name": "tokenId",
          "type": "uint256"
        },
        {
          "internalType": "bytes",
          "name": "data",
          "type": "bytes"
        }
      ],
      "name": "safeTransferFrom",
      "outputs": [],
      "stateMutability": "nonpayable",
      "type": "function"
    },
    {
      "inputs": [
        {
          "internalType": "address",
          "name": "operator",
          "type": "address"
        },
        {
          "internalType": "bool",
          "name": "approved",
          "type": "bool"
        }
      ],
      "name": "setApprovalForAll",
      "outputs": [],
      "stateMutability": "nonpayable",
      "type": "function"
    },
    {
      "inputs": [
        {
          "internalType": "bytes4",
          "name": "interfaceId",
          "type": "bytes4"
        }
      ],
      "name": "supportsInterface",
      "outputs": [
        {
          "internalType": "bool",
          "name": "",
          "type": "bool"
        }
      ],
      "stateMutability": "view",
      "type": "function"
    },
    {
      "inputs": [],
      "name": "symbol",
      "outputs": [
        {
          "internalType": "string",
          "name": "",
          "type": "string"
        }
      ],
      "stateMutability": "view",
      "type": "function"
    },
    {
      "inputs": [
        {
          "internalType": "uint256",
          "name": "tokenId",
          "type": "uint256"
        }
      ],
      "name": "tokenURI",
      "outputs": [
        {
          "internalType": "string",
          "name": "",
          "type": "string"
        }
      ],
      "stateMutability": "view",
      "type": "function"
    },
    {
      "inputs": [
        {
          "internalType": "address",
          "name": "from",
          "type": "address"
        },
        {
          "internalType": "address",
          "name": "to",
          "type": "address"
        },
        {
          "internalType": "uint256",
          "name": "tokenId",
          "type": "uint256"
        }
      ],
      "name": "transferFrom",
      "outputs": [],
      "stateMutability": "nonpayable",
      "type": "function"
    },
    {
      "inputs": [
        {
          "internalType": "uint256",
          "name": "_tokenId",
          "type": "uint256"
        }
      ],
      "name": "viewPolicy",
      "outputs": [
        {
          "internalType": "uint256",
          "name": "",
          "type": "uint256"
        },
        {
          "internalType": "uint256",
          "name": "",
          "type": "uint256"
        },
        {
          "internalType": "uint256",
          "name": "",
          "type": "uint256"
        },
        {
          "internalType": "string",
          "name": "",
          "type": "string"
        },
        {
          "internalType": "uint256",
          "name": "",
          "type": "uint256"
        }
      ],
      "stateMutability": "view",
      "type": "function"
    }
  ],
  "bytecode": "0x608060405260006006553480156200001657600080fd5b506040518060400160405280600a81526020017f57496e737572616e6365000000000000000000000000000000000000000000008152506040518060400160405280600381526020017f57494e0000000000000000000000000000000000000000000000000000000000815250816000908162000094919062000329565b508060019081620000a6919062000329565b50505062000410565b600081519050919050565b7f4e487b7100000000000000000000000000000000000000000000000000000000600052604160045260246000fd5b7f4e487b7100000000000000000000000000000000000000000000000000000000600052602260045260246000fd5b600060028204905060018216806200013157607f821691505b602082108103620001475762000146620000e9565b5b50919050565b60008190508160005260206000209050919050565b60006020601f8301049050919050565b600082821b905092915050565b600060088302620001b17fffffffffffffffffffffffffffffffffffffffffffffffffffffffffffffffff8262000172565b620001bd868362000172565b95508019841693508086168417925050509392505050565b6000819050919050565b6000819050919050565b60006200020a62000204620001fe84620001d5565b620001df565b620001d5565b9050919050565b6000819050919050565b6200022683620001e9565b6200023e620002358262000211565b8484546200017f565b825550505050565b600090565b6200025562000246565b620002628184846200021b565b505050565b5b818110156200028a576200027e6000826200024b565b60018101905062000268565b5050565b601f821115620002d957620002a3816200014d565b620002ae8462000162565b81016020851015620002be578190505b620002d6620002cd8562000162565b83018262000267565b50505b505050565b600082821c905092915050565b6000620002fe60001984600802620002de565b1980831691505092915050565b6000620003198383620002eb565b9150826002028217905092915050565b6200033482620000af565b67ffffffffffffffff81111562000350576200034f620000ba565b5b6200035c825462000118565b620003698282856200028e565b600060209050601f831160018114620003a157600084156200038c578287015190505b6200039885826200030b565b86555062000408565b601f198416620003b1866200014d565b60005b82811015620003db57848901518255600182019150602085019450602081019050620003b4565b86831015620003fb5784890151620003f7601f891682620002eb565b8355505b6001600288020188555050505b505050505050565b6127ab80620004206000396000f3fe608060405234801561001057600080fd5b50600436106101165760003560e01c806359fb49f9116100a257806397e689111161007157806397e689111461031f578063a22cb46514610353578063b88d4fde1461036f578063c87b56dd1461038b578063e985e9c5146103bb57610116565b806359fb49f91461026d5780636352211e146102a157806370a08231146102d157806395d89b411461030157610116565b806323b872dd116100e957806323b872dd146101b557806342842e0e146101d157806342966c68146101ed57806343dc5ee7146102095780634431cfc91461023957610116565b806301ffc9a71461011b57806306fdde031461014b578063081812fc14610169578063095ea7b314610199575b600080fd5b61013560048036038101906101309190611b6e565b6103eb565b6040516101429190611bb6565b60405180910390f35b6101536103fd565b6040516101609190611c61565b60405180910390f35b610183600480360381019061017e9190611cb9565b61048f565b6040516101909190611d27565b60405180910390f35b6101b360048036038101906101ae9190611d6e565b6104ab565b005b6101cf60048036038101906101ca9190611dae565b6104c1565b005b6101eb60048036038101906101e69190611dae565b6105c3565b005b61020760048036038101906102029190611cb9565b6105e3565b005b610223600480360381019061021e9190611f36565b6105fa565b6040516102309190611fdc565b60405180910390f35b610253600480360381019061024e9190611d6e565b61075b565b604051610264959493929190611ff7565b60405180910390f35b61028760048036038101906102829190611cb9565b610836565b604051610298959493929190611ff7565b60405180910390f35b6102bb60048036038101906102b69190611cb9565b6108f4565b6040516102c89190611d27565b60405180910390f35b6102eb60048036038101906102e69190612051565b610906565b6040516102f89190611fdc565b60405180910390f35b6103096109c0565b6040516103169190611c61565b60405180910390f35b61033960048036038101906103349190611cb9565b610a52565b60405161034a959493929190611ff7565b60405180910390f35b61036d600480360381019061036891906120aa565b610b63565b005b6103896004803603810190610384919061218b565b610b79565b005b6103a560048036038101906103a09190611cb9565b610b96565b6040516103b29190611c61565b60405180910390f35b6103d560048036038101906103d0919061220e565b610ba8565b6040516103e29190611bb6565b60405180910390f35b60006103f682610c3c565b9050919050565b60606000805461040c9061227d565b80601f01602080910402602001604051908101604052809291908181526020018280546104389061227d565b80156104855780601f1061045a57610100808354040283529160200191610485565b820191906000526020600020905b81548152906001019060200180831161046857829003601f168201915b5050505050905090565b600061049a82610d1e565b506104a482610da6565b9050919050565b6104bd82826104b8610de3565b610deb565b5050565b600073ffffffffffffffffffffffffffffffffffffffff168273ffffffffffffffffffffffffffffffffffffffff16036105335760006040517f64a0ae9200000000000000000000000000000000000000000000000000000000815260040161052a9190611d27565b60405180910390fd5b60006105478383610542610de3565b610dfd565b90508373ffffffffffffffffffffffffffffffffffffffff168173ffffffffffffffffffffffffffffffffffffffff16146105bd578382826040517f64283d7b0000000000000000000000000000000000000000000000000000000081526004016105b4939291906122ae565b60405180910390fd5b50505050565b6105de83838360405180602001604052806000815250610b79565b505050565b6105f66000826105f1610de3565b610dfd565b5050565b6000806040518060a00160405280888152602001878152602001868152602001858152602001848152509050600060065490506006600081548092919061064090612314565b91905055508160076000838152602001908152602001600020600082015181600001556020820151816001015560408201518160020155606082015181600301908161068c9190612508565b5060808201518160040155905050600860003373ffffffffffffffffffffffffffffffffffffffff1673ffffffffffffffffffffffffffffffffffffffff16815260200190815260200160002082908060018154018082558091505060019003906000526020600020906005020160009091909190915060008201518160000155602082015181600101556040820151816002015560608201518160030190816107369190612508565b5060808201518160040155505061074d3382611017565b809250505095945050505050565b6008602052816000526040600020818154811061077757600080fd5b9060005260206000209060050201600091509150508060000154908060010154908060020154908060030180546107ad9061227d565b80601f01602080910402602001604051908101604052809291908181526020018280546107d99061227d565b80156108265780601f106107fb57610100808354040283529160200191610826565b820191906000526020600020905b81548152906001019060200180831161080957829003601f168201915b5050505050908060040154905085565b600760205280600052604060002060009150905080600001549080600101549080600201549080600301805461086b9061227d565b80601f01602080910402602001604051908101604052809291908181526020018280546108979061227d565b80156108e45780601f106108b9576101008083540402835291602001916108e4565b820191906000526020600020905b8154815290600101906020018083116108c757829003601f168201915b5050505050908060040154905085565b60006108ff82610d1e565b9050919050565b60008073ffffffffffffffffffffffffffffffffffffffff168273ffffffffffffffffffffffffffffffffffffffff16036109795760006040517f89c62b640000000000000000000000000000000000000000000000000000000081526004016109709190611d27565b60405180910390fd5b600360008373ffffffffffffffffffffffffffffffffffffffff1673ffffffffffffffffffffffffffffffffffffffff168152602001908152602001600020549050919050565b6060600180546109cf9061227d565b80601f01602080910402602001604051908101604052809291908181526020018280546109fb9061227d565b8015610a485780601f10610a1d57610100808354040283529160200191610a48565b820191906000526020600020905b815481529060010190602001808311610a2b57829003601f168201915b5050505050905090565b60008060006060600080600760008881526020019081526020016000206040518060a0016040529081600082015481526020016001820154815260200160028201548152602001600382018054610aa89061227d565b80601f0160208091040260200160405190810160405280929190818152602001828054610ad49061227d565b8015610b215780601f10610af657610100808354040283529160200191610b21565b820191906000526020600020905b815481529060010190602001808311610b0457829003601f168201915b50505050508152602001600482015481525050905080600001518160200151826040015183606001518460800151955095509550955095505091939590929450565b610b75610b6e610de3565b8383611035565b5050565b610b848484846104c1565b610b90848484846111a4565b50505050565b6060610ba18261135b565b9050919050565b6000600560008473ffffffffffffffffffffffffffffffffffffffff1673ffffffffffffffffffffffffffffffffffffffff16815260200190815260200160002060008373ffffffffffffffffffffffffffffffffffffffff1673ffffffffffffffffffffffffffffffffffffffff16815260200190815260200160002060009054906101000a900460ff16905092915050565b60007f80ac58cd000000000000000000000000000000000000000000000000000000007bffffffffffffffffffffffffffffffffffffffffffffffffffffffff1916827bffffffffffffffffffffffffffffffffffffffffffffffffffffffff19161480610d0757507f5b5e139f000000000000000000000000000000000000000000000000000000007bffffffffffffffffffffffffffffffffffffffffffffffffffffffff1916827bffffffffffffffffffffffffffffffffffffffffffffffffffffffff1916145b80610d175750610d16826113c4565b5b9050919050565b600080610d2a8361142e565b9050600073ffffffffffffffffffffffffffffffffffffffff168173ffffffffffffffffffffffffffffffffffffffff1603610d9d57826040517f7e273289000000000000000000000000000000000000000000000000000000008152600401610d949190611fdc565b60405180910390fd5b80915050919050565b60006004600083815260200190815260200160002060009054906101000a900473ffffffffffffffffffffffffffffffffffffffff169050919050565b600033905090565b610df8838383600161146b565b505050565b600080610e098461142e565b9050600073ffffffffffffffffffffffffffffffffffffffff168373ffffffffffffffffffffffffffffffffffffffff1614610e4b57610e4a818486611630565b5b600073ffffffffffffffffffffffffffffffffffffffff168173ffffffffffffffffffffffffffffffffffffffff1614610edc57610e8d60008560008061146b565b6001600360008373ffffffffffffffffffffffffffffffffffffffff1673ffffffffffffffffffffffffffffffffffffffff168152602001908152602001600020600082825403925050819055505b600073ffffffffffffffffffffffffffffffffffffffff168573ffffffffffffffffffffffffffffffffffffffff1614610f5f576001600360008773ffffffffffffffffffffffffffffffffffffffff1673ffffffffffffffffffffffffffffffffffffffff168152602001908152602001600020600082825401925050819055505b846002600086815260200190815260200160002060006101000a81548173ffffffffffffffffffffffffffffffffffffffff021916908373ffffffffffffffffffffffffffffffffffffffff160217905550838573ffffffffffffffffffffffffffffffffffffffff168273ffffffffffffffffffffffffffffffffffffffff167fddf252ad1be2c89b69c2b068fc378daa952ba7f163c4a11628f55a4df523b3ef60405160405180910390a4809150509392505050565b6110318282604051806020016040528060008152506116f4565b5050565b600073ffffffffffffffffffffffffffffffffffffffff168273ffffffffffffffffffffffffffffffffffffffff16036110a657816040517f5b08ba1800000000000000000000000000000000000000000000000000000000815260040161109d9190611d27565b60405180910390fd5b80600560008573ffffffffffffffffffffffffffffffffffffffff1673ffffffffffffffffffffffffffffffffffffffff16815260200190815260200160002060008473ffffffffffffffffffffffffffffffffffffffff1673ffffffffffffffffffffffffffffffffffffffff16815260200190815260200160002060006101000a81548160ff0219169083151502179055508173ffffffffffffffffffffffffffffffffffffffff168373ffffffffffffffffffffffffffffffffffffffff167f17307eab39ab6107e8899845ad3d59bd9653f200f220920489ca2b5937696c31836040516111979190611bb6565b60405180910390a3505050565b60008373ffffffffffffffffffffffffffffffffffffffff163b1115611355578273ffffffffffffffffffffffffffffffffffffffff1663150b7a026111e8610de3565b8685856040518563ffffffff1660e01b815260040161120a949392919061262f565b6020604051808303816000875af192505050801561124657506040513d601f19601f820116820180604052508101906112439190612690565b60015b6112ca573d8060008114611276576040519150601f19603f3d011682016040523d82523d6000602084013e61127b565b606091505b5060008151036112c257836040517f64a0ae920000000000000000000000000000000000000000000000000000000081526004016112b99190611d27565b60405180910390fd5b805181602001fd5b63150b7a0260e01b7bffffffffffffffffffffffffffffffffffffffffffffffffffffffff1916817bffffffffffffffffffffffffffffffffffffffffffffffffffffffff19161461135357836040517f64a0ae9200000000000000000000000000000000000000000000000000000000815260040161134a9190611d27565b60405180910390fd5b505b50505050565b606061136682610d1e565b506000611371611710565b9050600081511161139157604051806020016040528060008152506113bc565b8061139b84611727565b6040516020016113ac9291906126f9565b6040516020818303038152906040525b915050919050565b60007f01ffc9a7000000000000000000000000000000000000000000000000000000007bffffffffffffffffffffffffffffffffffffffffffffffffffffffff1916827bffffffffffffffffffffffffffffffffffffffffffffffffffffffff1916149050919050565b60006002600083815260200190815260200160002060009054906101000a900473ffffffffffffffffffffffffffffffffffffffff169050919050565b80806114a45750600073ffffffffffffffffffffffffffffffffffffffff168273ffffffffffffffffffffffffffffffffffffffff1614155b156115d85760006114b484610d1e565b9050600073ffffffffffffffffffffffffffffffffffffffff168373ffffffffffffffffffffffffffffffffffffffff161415801561151f57508273ffffffffffffffffffffffffffffffffffffffff168173ffffffffffffffffffffffffffffffffffffffff1614155b801561153257506115308184610ba8565b155b1561157457826040517fa9fbf51f00000000000000000000000000000000000000000000000000000000815260040161156b9190611d27565b60405180910390fd5b81156115d657838573ffffffffffffffffffffffffffffffffffffffff168273ffffffffffffffffffffffffffffffffffffffff167f8c5be1e5ebec7d5bd14f71427d1e84f3dd0314c0f7b2291e5b200ac8c7c3b92560405160405180910390a45b505b836004600085815260200190815260200160002060006101000a81548173ffffffffffffffffffffffffffffffffffffffff021916908373ffffffffffffffffffffffffffffffffffffffff16021790555050505050565b61163b8383836117f5565b6116ef57600073ffffffffffffffffffffffffffffffffffffffff168373ffffffffffffffffffffffffffffffffffffffff16036116b057806040517f7e2732890000000000000000000000000000000000000000000000000000000081526004016116a79190611fdc565b60405180910390fd5b81816040517f177e802f0000000000000000000000000000000000000000000000000000000081526004016116e692919061271d565b60405180910390fd5b505050565b6116fe83836118b6565b61170b60008484846111a4565b505050565b606060405180602001604052806000815250905090565b606060006001611736846119af565b01905060008167ffffffffffffffff81111561175557611754611e0b565b5b6040519080825280601f01601f1916602001820160405280156117875781602001600182028036833780820191505090505b509050600082602001820190505b6001156117ea578080600190039150507f3031323334353637383961626364656600000000000000000000000000000000600a86061a8153600a85816117de576117dd612746565b5b04945060008503611795575b819350505050919050565b60008073ffffffffffffffffffffffffffffffffffffffff168373ffffffffffffffffffffffffffffffffffffffff16141580156118ad57508273ffffffffffffffffffffffffffffffffffffffff168473ffffffffffffffffffffffffffffffffffffffff16148061186e575061186d8484610ba8565b5b806118ac57508273ffffffffffffffffffffffffffffffffffffffff1661189483610da6565b73ffffffffffffffffffffffffffffffffffffffff16145b5b90509392505050565b600073ffffffffffffffffffffffffffffffffffffffff168273ffffffffffffffffffffffffffffffffffffffff16036119285760006040517f64a0ae9200000000000000000000000000000000000000000000000000000000815260040161191f9190611d27565b60405180910390fd5b600061193683836000610dfd565b9050600073ffffffffffffffffffffffffffffffffffffffff168173ffffffffffffffffffffffffffffffffffffffff16146119aa5760006040517f73c6ac6e0000000000000000000000000000000000000000000000000000000081526004016119a19190611d27565b60405180910390fd5b505050565b600080600090507a184f03e93ff9f4daa797ed6e38ed64bf6a1f0100000000000000008310611a0d577a184f03e93ff9f4daa797ed6e38ed64bf6a1f0100000000000000008381611a0357611a02612746565b5b0492506040810190505b6d04ee2d6d415b85acef81000000008310611a4a576d04ee2d6d415b85acef81000000008381611a4057611a3f612746565b5b0492506020810190505b662386f26fc100008310611a7957662386f26fc100008381611a6f57611a6e612746565b5b0492506010810190505b6305f5e1008310611aa2576305f5e1008381611a9857611a97612746565b5b0492506008810190505b6127108310611ac7576127108381611abd57611abc612746565b5b0492506004810190505b60648310611aea5760648381611ae057611adf612746565b5b0492506002810190505b600a8310611af9576001810190505b80915050919050565b6000604051905090565b600080fd5b600080fd5b60007fffffffff0000000000000000000000000000000000000000000000000000000082169050919050565b611b4b81611b16565b8114611b5657600080fd5b50565b600081359050611b6881611b42565b92915050565b600060208284031215611b8457611b83611b0c565b5b6000611b9284828501611b59565b91505092915050565b60008115159050919050565b611bb081611b9b565b82525050565b6000602082019050611bcb6000830184611ba7565b92915050565b600081519050919050565b600082825260208201905092915050565b60005b83811015611c0b578082015181840152602081019050611bf0565b60008484015250505050565b6000601f19601f8301169050919050565b6000611c3382611bd1565b611c3d8185611bdc565b9350611c4d818560208601611bed565b611c5681611c17565b840191505092915050565b60006020820190508181036000830152611c7b8184611c28565b905092915050565b6000819050919050565b611c9681611c83565b8114611ca157600080fd5b50565b600081359050611cb381611c8d565b92915050565b600060208284031215611ccf57611cce611b0c565b5b6000611cdd84828501611ca4565b91505092915050565b600073ffffffffffffffffffffffffffffffffffffffff82169050919050565b6000611d1182611ce6565b9050919050565b611d2181611d06565b82525050565b6000602082019050611d3c6000830184611d18565b92915050565b611d4b81611d06565b8114611d5657600080fd5b50565b600081359050611d6881611d42565b92915050565b60008060408385031215611d8557611d84611b0c565b5b6000611d9385828601611d59565b9250506020611da485828601611ca4565b9150509250929050565b600080600060608486031215611dc757611dc6611b0c565b5b6000611dd586828701611d59565b9350506020611de686828701611d59565b9250506040611df786828701611ca4565b9150509250925092565b600080fd5b600080fd5b7f4e487b7100000000000000000000000000000000000000000000000000000000600052604160045260246000fd5b611e4382611c17565b810181811067ffffffffffffffff82111715611e6257611e61611e0b565b5b80604052505050565b6000611e75611b02565b9050611e818282611e3a565b919050565b600067ffffffffffffffff821115611ea157611ea0611e0b565b5b611eaa82611c17565b9050602081019050919050565b82818337600083830152505050565b6000611ed9611ed484611e86565b611e6b565b905082815260208101848484011115611ef557611ef4611e06565b5b611f00848285611eb7565b509392505050565b600082601f830112611f1d57611f1c611e01565b5b8135611f2d848260208601611ec6565b91505092915050565b600080600080600060a08688031215611f5257611f51611b0c565b5b6000611f6088828901611ca4565b9550506020611f7188828901611ca4565b9450506040611f8288828901611ca4565b935050606086013567ffffffffffffffff811115611fa357611fa2611b11565b5b611faf88828901611f08565b9250506080611fc088828901611ca4565b9150509295509295909350565b611fd681611c83565b82525050565b6000602082019050611ff16000830184611fcd565b92915050565b600060a08201905061200c6000830188611fcd565b6120196020830187611fcd565b6120266040830186611fcd565b81810360608301526120388185611c28565b90506120476080830184611fcd565b9695505050505050565b60006020828403121561206757612066611b0c565b5b600061207584828501611d59565b91505092915050565b61208781611b9b565b811461209257600080fd5b50565b6000813590506120a48161207e565b92915050565b600080604083850312156120c1576120c0611b0c565b5b60006120cf85828601611d59565b92505060206120e085828601612095565b9150509250929050565b600067ffffffffffffffff82111561210557612104611e0b565b5b61210e82611c17565b9050602081019050919050565b600061212e612129846120ea565b611e6b565b90508281526020810184848401111561214a57612149611e06565b5b612155848285611eb7565b509392505050565b600082601f83011261217257612171611e01565b5b813561218284826020860161211b565b91505092915050565b600080600080608085870312156121a5576121a4611b0c565b5b60006121b387828801611d59565b94505060206121c487828801611d59565b93505060406121d587828801611ca4565b925050606085013567ffffffffffffffff8111156121f6576121f5611b11565b5b6122028782880161215d565b91505092959194509250565b6000806040838503121561222557612224611b0c565b5b600061223385828601611d59565b925050602061224485828601611d59565b9150509250929050565b7f4e487b7100000000000000000000000000000000000000000000000000000000600052602260045260246000fd5b6000600282049050600182168061229557607f821691505b6020821081036122a8576122a761224e565b5b50919050565b60006060820190506122c36000830186611d18565b6122d06020830185611fcd565b6122dd6040830184611d18565b949350505050565b7f4e487b7100000000000000000000000000000000000000000000000000000000600052601160045260246000fd5b600061231f82611c83565b91507fffffffffffffffffffffffffffffffffffffffffffffffffffffffffffffffff8203612351576123506122e5565b5b600182019050919050565b60008190508160005260206000209050919050565b60006020601f8301049050919050565b600082821b905092915050565b6000600883026123be7fffffffffffffffffffffffffffffffffffffffffffffffffffffffffffffffff82612381565b6123c88683612381565b95508019841693508086168417925050509392505050565b6000819050919050565b60006124056124006123fb84611c83565b6123e0565b611c83565b9050919050565b6000819050919050565b61241f836123ea565b61243361242b8261240c565b84845461238e565b825550505050565b600090565b61244861243b565b612453818484612416565b505050565b5b818110156124775761246c600082612440565b600181019050612459565b5050565b601f8211156124bc5761248d8161235c565b61249684612371565b810160208510156124a5578190505b6124b96124b185612371565b830182612458565b50505b505050565b600082821c905092915050565b60006124df600019846008026124c1565b1980831691505092915050565b60006124f883836124ce565b9150826002028217905092915050565b61251182611bd1565b67ffffffffffffffff81111561252a57612529611e0b565b5b612534825461227d565b61253f82828561247b565b600060209050601f8311600181146125725760008415612560578287015190505b61256a85826124ec565b8655506125d2565b601f1984166125808661235c565b60005b828110156125a857848901518255600182019150602085019450602081019050612583565b868310156125c557848901516125c1601f8916826124ce565b8355505b6001600288020188555050505b505050505050565b600081519050919050565b600082825260208201905092915050565b6000612601826125da565b61260b81856125e5565b935061261b818560208601611bed565b61262481611c17565b840191505092915050565b60006080820190506126446000830187611d18565b6126516020830186611d18565b61265e6040830185611fcd565b818103606083015261267081846125f6565b905095945050505050565b60008151905061268a81611b42565b92915050565b6000602082840312156126a6576126a5611b0c565b5b60006126b48482850161267b565b91505092915050565b600081905092915050565b60006126d382611bd1565b6126dd81856126bd565b93506126ed818560208601611bed565b80840191505092915050565b600061270582856126c8565b915061271182846126c8565b91508190509392505050565b60006040820190506127326000830185611d18565b61273f6020830184611fcd565b9392505050565b7f4e487b7100000000000000000000000000000000000000000000000000000000600052601260045260246000fdfea2646970667358221220f323dfe84f2f5b99c94cb07d5477571477779fd00f0ba01a59e20549dcfd8cf064736f6c63430008140033",
  "linkReferences": {},
  "deployedLinkReferences": {}
}